{
  "contractName": "Servesa",
  "abi": [
    {
      "constant": false,
      "inputs": [],
      "name": "sunset",
      "outputs": [],
      "payable": false,
      "stateMutability": "nonpayable",
      "type": "function"
    },
    {
      "constant": true,
      "inputs": [
        {
          "name": "",
          "type": "address"
        }
      ],
      "name": "funders",
      "outputs": [
        {
          "name": "exists",
          "type": "bool"
        },
        {
          "name": "tokenCount",
          "type": "uint256"
        },
        {
          "name": "totalPurchasePrice",
          "type": "uint256"
        }
      ],
      "payable": false,
      "stateMutability": "view",
      "type": "function"
    },
    {
      "constant": true,
      "inputs": [],
      "name": "contractStartTime",
      "outputs": [
        {
          "name": "",
          "type": "uint256"
        }
      ],
      "payable": false,
      "stateMutability": "view",
      "type": "function"
    },
    {
      "constant": false,
      "inputs": [
        {
          "name": "tokenPrice",
          "type": "uint256"
        }
      ],
      "name": "calculateNextBuyPrice",
      "outputs": [
        {
          "name": "",
          "type": "uint256"
        }
      ],
      "payable": false,
      "stateMutability": "nonpayable",
      "type": "function"
    },
    {
      "constant": true,
      "inputs": [
        {
          "name": "addr",
          "type": "address"
        }
      ],
      "name": "isFunder",
      "outputs": [
        {
          "name": "",
          "type": "bool"
        }
      ],
      "payable": false,
      "stateMutability": "view",
      "type": "function"
    },
    {
      "constant": true,
      "inputs": [],
      "name": "withdrawalCounter",
      "outputs": [
        {
          "name": "",
          "type": "uint256"
        }
      ],
      "payable": false,
      "stateMutability": "view",
      "type": "function"
    },
    {
      "constant": true,
      "inputs": [],
      "name": "sunsetWithdrawalPeriod",
      "outputs": [
        {
          "name": "",
          "type": "uint256"
        }
      ],
      "payable": false,
      "stateMutability": "view",
      "type": "function"
    },
    {
      "constant": false,
      "inputs": [
        {
          "name": "amount",
          "type": "uint256"
        }
      ],
      "name": "setTokenBasePrice",
      "outputs": [],
      "payable": false,
      "stateMutability": "nonpayable",
      "type": "function"
    },
    {
      "constant": false,
      "inputs": [],
      "name": "burn",
      "outputs": [],
      "payable": false,
      "stateMutability": "nonpayable",
      "type": "function"
    },
    {
      "constant": false,
      "inputs": [],
      "name": "spend",
      "outputs": [],
      "payable": false,
      "stateMutability": "nonpayable",
      "type": "function"
    },
    {
      "constant": false,
      "inputs": [],
      "name": "sell",
      "outputs": [],
      "payable": false,
      "stateMutability": "nonpayable",
      "type": "function"
    },
    {
      "constant": true,
      "inputs": [],
      "name": "version",
      "outputs": [
        {
          "name": "",
          "type": "uint256"
        }
      ],
      "payable": false,
      "stateMutability": "view",
      "type": "function"
    },
    {
      "constant": true,
      "inputs": [],
      "name": "tokenContract",
      "outputs": [
        {
          "name": "",
          "type": "address"
        }
      ],
      "payable": false,
      "stateMutability": "view",
      "type": "function"
    },
    {
      "constant": true,
      "inputs": [],
      "name": "getCurrentTotalFunders",
      "outputs": [
        {
          "name": "",
          "type": "uint256"
        }
      ],
      "payable": false,
      "stateMutability": "view",
      "type": "function"
    },
    {
      "constant": true,
      "inputs": [],
      "name": "getContractBalance",
      "outputs": [
        {
          "name": "balance",
          "type": "uint256"
        }
      ],
      "payable": false,
      "stateMutability": "view",
      "type": "function"
    },
    {
      "constant": true,
      "inputs": [],
      "name": "getOwner",
      "outputs": [
        {
          "name": "",
          "type": "address"
        }
      ],
      "payable": false,
      "stateMutability": "view",
      "type": "function"
    },
    {
      "constant": false,
      "inputs": [
        {
          "name": "_transfersEnabled",
          "type": "bool"
        }
      ],
      "name": "tokenContractEnableTransfers",
      "outputs": [],
      "payable": false,
      "stateMutability": "nonpayable",
      "type": "function"
    },
    {
      "constant": true,
      "inputs": [],
      "name": "live",
      "outputs": [
        {
          "name": "",
          "type": "bool"
        }
      ],
      "payable": false,
      "stateMutability": "view",
      "type": "function"
    },
    {
      "constant": true,
      "inputs": [],
      "name": "totalCurrentFunders",
      "outputs": [
        {
          "name": "",
          "type": "uint256"
        }
      ],
      "payable": false,
      "stateMutability": "view",
      "type": "function"
    },
    {
      "constant": false,
      "inputs": [],
      "name": "buy",
      "outputs": [],
      "payable": true,
      "stateMutability": "payable",
      "type": "function"
    },
    {
      "constant": false,
      "inputs": [
        {
          "name": "_token",
          "type": "address"
        }
      ],
      "name": "tokenContractClaimTokens",
      "outputs": [],
      "payable": false,
      "stateMutability": "nonpayable",
      "type": "function"
    },
    {
      "constant": false,
      "inputs": [
        {
          "name": "recipient",
          "type": "address"
        }
      ],
      "name": "swipe",
      "outputs": [],
      "payable": false,
      "stateMutability": "nonpayable",
      "type": "function"
    },
    {
      "constant": true,
      "inputs": [],
      "name": "tokenFactory",
      "outputs": [
        {
          "name": "",
          "type": "address"
        }
      ],
      "payable": false,
      "stateMutability": "view",
      "type": "function"
    },
    {
      "constant": false,
      "inputs": [
        {
          "name": "escrowBalance",
          "type": "uint256"
        },
        {
          "name": "tokenSupply",
          "type": "uint256"
        }
      ],
      "name": "calculateNextSellPrice",
      "outputs": [
        {
          "name": "",
          "type": "uint256"
        }
      ],
      "payable": false,
      "stateMutability": "nonpayable",
      "type": "function"
    },
    {
      "constant": true,
      "inputs": [],
      "name": "sunsetWithdrawDate",
      "outputs": [
        {
          "name": "",
          "type": "uint256"
        }
      ],
      "payable": false,
      "stateMutability": "view",
      "type": "function"
    },
    {
      "inputs": [
        {
          "name": "ownerAddress",
          "type": "address"
        },
        {
          "name": "ownerCanBurnInit",
          "type": "bool"
        },
        {
          "name": "ownerCanSpendInit",
          "type": "bool"
        },
        {
          "name": "tokenBasePriceInit",
          "type": "uint256"
        },
        {
          "name": "tokenPriceExponentInit",
          "type": "uint256"
        },
        {
          "name": "tokenPriceExponentDivisorInit",
          "type": "uint256"
        },
        {
          "name": "sunsetWithdrawPeriodInit",
          "type": "uint256"
        }
      ],
      "payable": false,
      "stateMutability": "nonpayable",
      "type": "constructor"
    },
    {
      "payable": true,
      "stateMutability": "payable",
      "type": "fallback"
    },
    {
      "anonymous": false,
      "inputs": [
        {
          "indexed": false,
          "name": "testOne",
          "type": "uint256"
        },
        {
          "indexed": false,
          "name": "testString",
          "type": "string"
        }
      ],
      "name": "NewContract",
      "type": "event"
    },
    {
      "anonymous": false,
      "inputs": [
        {
          "indexed": true,
          "name": "funder",
          "type": "address"
        },
        {
          "indexed": false,
          "name": "tokenCount",
          "type": "uint256"
        }
      ],
      "name": "Buy",
      "type": "event"
    },
    {
      "anonymous": false,
      "inputs": [
        {
          "indexed": true,
          "name": "funder",
          "type": "address"
        },
        {
          "indexed": false,
          "name": "tokenCount",
          "type": "uint256"
        }
      ],
      "name": "Sell",
      "type": "event"
    },
    {
      "anonymous": false,
      "inputs": [
        {
          "indexed": true,
          "name": "funder",
          "type": "address"
        },
        {
          "indexed": false,
          "name": "tokenCount",
          "type": "uint256"
        }
      ],
      "name": "Burn",
      "type": "event"
    },
    {
      "anonymous": false,
      "inputs": [
        {
          "indexed": false,
          "name": "amount",
          "type": "uint256"
        }
      ],
      "name": "Drain",
      "type": "event"
    },
    {
      "anonymous": false,
      "inputs": [
        {
          "indexed": false,
          "name": "hasSunset",
          "type": "bool"
        }
      ],
      "name": "Sunset",
      "type": "event"
    }
  ],
  "bytecode": "0x6060604052600080556001600260006101000a81548160ff02191690831515021790555060006003556000600455341561003857600080fd5b60405160e0806142d38339810160405280805190602001909190805190602001909190805190602001909190805190602001909190805190602001909190805190602001909190805190602001909190505060008160068190555087600960006101000a81548173ffffffffffffffffffffffffffffffffffffffff021916908373ffffffffffffffffffffffffffffffffffffffff16021790555086600960146101000a81548160ff02191690831515021790555085600960156101000a81548160ff02191690831515021790555084600a8190555083600b8190555082600c81905550600a90506101296103a5565b604051809103906000f080151561013f57600080fd5b600860006101000a81548173ffffffffffffffffffffffffffffffffffffffff021916908373ffffffffffffffffffffffffffffffffffffffff160217905550600860009054906101000a900473ffffffffffffffffffffffffffffffffffffffff1673ffffffffffffffffffffffffffffffffffffffff16635b7b72c16000808460016000604051602001526040518563ffffffff167c0100000000000000000000000000000000000000000000000000000000028152600401808573ffffffffffffffffffffffffffffffffffffffff168152602001848152602001806020018460ff1660ff1681526020018060200184151515158152602001838103835260048152602001807f6173646600000000000000000000000000000000000000000000000000000000815250602001838103825260058152602001807f61736466310000000000000000000000000000000000000000000000000000008152506020019650505050505050602060405180830381600087803b15156102c457600080fd5b6102c65a03f115156102d557600080fd5b50505060405180519050600760006101000a81548173ffffffffffffffffffffffffffffffffffffffff021916908373ffffffffffffffffffffffffffffffffffffffff16021790555042600d819055507f47c75b3880596e8d066c74e9ac5742a287f07f32f83dafdb29b5a39a592239f761326460405180828152602001806020018281038252601b8152602001807f74657374206d6573736167652067726f756e6420636f6e74726f6c00000000008152506020019250505060405180910390a150505050505050506103b5565b604051612ce8806115eb83390190565b611227806103c46000396000f300606060405260043610610149576000357c0100000000000000000000000000000000000000000000000000000000900463ffffffff168063026164ad14610153578063031b3677146101685780630c3d5157146101c757806315007fd6146101f05780631ea488701461022757806320d786b51461027857806339b8dc40146102a15780633bb1cfa3146102ca57806344df8e70146102ed57806345615bcc14610302578063457100741461031757806354fd4d501461032c57806355a373d6146103555780635896521b146103aa5780636f9fb98a146103d3578063893d20e8146103fc578063946ad94d14610451578063957aa58c14610476578063962ffeae146104a3578063a6f2ae3a146104cc578063baa61df0146104d6578063cce7db581461050f578063e77772fe14610548578063e81ed1c41461059d578063fa2e9db8146105dd575b610151610606565b005b341561015e57600080fd5b6101666108a9565b005b341561017357600080fd5b61019f600480803573ffffffffffffffffffffffffffffffffffffffff16906020019091905050610994565b6040518084151515158152602001838152602001828152602001935050505060405180910390f35b34156101d257600080fd5b6101da6109cb565b6040518082815260200191505060405180910390f35b34156101fb57600080fd5b61021160048080359060200190919050506109d1565b6040518082815260200191505060405180910390f35b341561023257600080fd5b61025e600480803573ffffffffffffffffffffffffffffffffffffffff169060200190919050506109db565b604051808215151515815260200191505060405180910390f35b341561028357600080fd5b61028b610a34565b6040518082815260200191505060405180910390f35b34156102ac57600080fd5b6102b4610a3a565b6040518082815260200191505060405180910390f35b34156102d557600080fd5b6102eb6004808035906020019091905050610a40565b005b34156102f857600080fd5b610300610ab5565b005b341561030d57600080fd5b610315610b98565b005b341561032257600080fd5b61032a610c64565b005b341561033757600080fd5b61033f610d56565b6040518082815260200191505060405180910390f35b341561036057600080fd5b610368610d5c565b604051808273ffffffffffffffffffffffffffffffffffffffff1673ffffffffffffffffffffffffffffffffffffffff16815260200191505060405180910390f35b34156103b557600080fd5b6103bd610d82565b6040518082815260200191505060405180910390f35b34156103de57600080fd5b6103e6610d8c565b6040518082815260200191505060405180910390f35b341561040757600080fd5b61040f610dab565b604051808273ffffffffffffffffffffffffffffffffffffffff1673ffffffffffffffffffffffffffffffffffffffff16815260200191505060405180910390f35b341561045c57600080fd5b61047460048080351515906020019091905050610dd5565b005b341561048157600080fd5b610489610edc565b604051808215151515815260200191505060405180910390f35b34156104ae57600080fd5b6104b6610eef565b6040518082815260200191505060405180910390f35b6104d4610606565b005b34156104e157600080fd5b61050d600480803573ffffffffffffffffffffffffffffffffffffffff16906020019091905050610ef5565b005b341561051a57600080fd5b610546600480803573ffffffffffffffffffffffffffffffffffffffff16906020019091905050611024565b005b341561055357600080fd5b61055b611107565b604051808273ffffffffffffffffffffffffffffffffffffffff1673ffffffffffffffffffffffffffffffffffffffff16815260200191505060405180910390f35b34156105a857600080fd5b6105c7600480803590602001909190803590602001909190505061112d565b6040518082815260200191505060405180910390f35b34156105e857600080fd5b6105f0611170565b6040518082815260200191505060405180910390f35b600260009054906101000a900460ff16151561062157600080fd5b61062c600a546109d1565b341015151561063a57600080fd5b610643336109db565b15156107005761065f600160035461117690919063ffffffff16565b6003819055506060604051908101604052806001151581526020016001815260200134815250600160003373ffffffffffffffffffffffffffffffffffffffff1673ffffffffffffffffffffffffffffffffffffffff16815260200190815260200160002060008201518160000160006101000a81548160ff0219169083151502179055506020820151816001015560408201518160020155905050610817565b60018060003373ffffffffffffffffffffffffffffffffffffffff1673ffffffffffffffffffffffffffffffffffffffff1681526020019081526020016000206001015401600160003373ffffffffffffffffffffffffffffffffffffffff1673ffffffffffffffffffffffffffffffffffffffff1681526020019081526020016000206001018190555034600160003373ffffffffffffffffffffffffffffffffffffffff1673ffffffffffffffffffffffffffffffffffffffff1681526020019081526020016000206002015401600160003373ffffffffffffffffffffffffffffffffffffffff1673ffffffffffffffffffffffffffffffffffffffff168152602001908152602001600020600201819055505b3373ffffffffffffffffffffffffffffffffffffffff167fe3d4187f6ca4248660cc0ac8b8056515bac4a8132be2eca31d6d0cc170722a7e600160003373ffffffffffffffffffffffffffffffffffffffff1673ffffffffffffffffffffffffffffffffffffffff168152602001908152602001600020600101546040518082815260200191505060405180910390a2565b600960009054906101000a900473ffffffffffffffffffffffffffffffffffffffff1673ffffffffffffffffffffffffffffffffffffffff163373ffffffffffffffffffffffffffffffffffffffff1614151561090557600080fd5b600260009054906101000a900460ff16151561092057600080fd5b6109356006544261117690919063ffffffff16565b6005819055506000600260006101000a81548160ff0219169083151502179055507fcd62b3824d2183ae05f654408a9f8a5768f44218ec6eea3722d91b9405d2757e6001604051808215151515815260200191505060405180910390a1565b60016020528060005260406000206000915090508060000160009054906101000a900460ff16908060010154908060020154905083565b600d5481565b6000819050919050565b6000600160008373ffffffffffffffffffffffffffffffffffffffff1673ffffffffffffffffffffffffffffffffffffffff16815260200190815260200160002060000160009054906101000a900460ff169050919050565b60045481565b60065481565b600960009054906101000a900473ffffffffffffffffffffffffffffffffffffffff1673ffffffffffffffffffffffffffffffffffffffff163373ffffffffffffffffffffffffffffffffffffffff16141515610a9c57600080fd5b600081111515610aab57600080fd5b80600a8190555050565b600260009054906101000a900460ff161515610ad057600080fd5b600960009054906101000a900473ffffffffffffffffffffffffffffffffffffffff1673ffffffffffffffffffffffffffffffffffffffff163373ffffffffffffffffffffffffffffffffffffffff16141515610b2c57600080fd5b600960149054906101000a900460ff161515610b4757600080fd5b3373ffffffffffffffffffffffffffffffffffffffff167fcc16f5dbb4873280815c1ee09dbd06736cffcc184412cf7a71a0fdb75d397ca5600a6040518082815260200191505060405180910390a2565b600260009054906101000a900460ff161515610bb357600080fd5b600960009054906101000a900473ffffffffffffffffffffffffffffffffffffffff1673ffffffffffffffffffffffffffffffffffffffff163373ffffffffffffffffffffffffffffffffffffffff16141515610c0f57600080fd5b600960159054906101000a900460ff161515610c2a57600080fd5b7f7f36875e1aa63a260a86253b4178fbeb52d1d36819b47a29d15ec2a259e49efa600a6040518082815260200191505060405180910390a1565b600260009054906101000a900460ff161515610c7f57600080fd5b610c88336109db565b1515610c9357600080fd5b610c9c336109db565b1515610d5357610cb8600160035461119490919063ffffffff16565b6003819055503373ffffffffffffffffffffffffffffffffffffffff167f5e5e995ce3133561afceaa51a9a154d5db228cd7525d34df5185582c18d3df09600160003373ffffffffffffffffffffffffffffffffffffffff1673ffffffffffffffffffffffffffffffffffffffff168152602001908152602001600020600101546040518082815260200191505060405180910390a2610d54565b5b565b60005481565b600760009054906101000a900473ffffffffffffffffffffffffffffffffffffffff1681565b6000600354905090565b60003073ffffffffffffffffffffffffffffffffffffffff1631905090565b6000600960009054906101000a900473ffffffffffffffffffffffffffffffffffffffff16905090565b600960009054906101000a900473ffffffffffffffffffffffffffffffffffffffff1673ffffffffffffffffffffffffffffffffffffffff163373ffffffffffffffffffffffffffffffffffffffff16141515610e3157600080fd5b600760009054906101000a900473ffffffffffffffffffffffffffffffffffffffff1673ffffffffffffffffffffffffffffffffffffffff1663f41e60c5826040518263ffffffff167c01000000000000000000000000000000000000000000000000000000000281526004018082151515158152602001915050600060405180830381600087803b1515610ec557600080fd5b6102c65a03f11515610ed657600080fd5b50505050565b600260009054906101000a900460ff1681565b60035481565b600960009054906101000a900473ffffffffffffffffffffffffffffffffffffffff1673ffffffffffffffffffffffffffffffffffffffff163373ffffffffffffffffffffffffffffffffffffffff16141515610f5157600080fd5b600760009054906101000a900473ffffffffffffffffffffffffffffffffffffffff1673ffffffffffffffffffffffffffffffffffffffff1663df8de3e7826040518263ffffffff167c0100000000000000000000000000000000000000000000000000000000028152600401808273ffffffffffffffffffffffffffffffffffffffff1673ffffffffffffffffffffffffffffffffffffffff168152602001915050600060405180830381600087803b151561100d57600080fd5b6102c65a03f1151561101e57600080fd5b50505050565b600260009054906101000a900460ff1615151561104057600080fd5b600960009054906101000a900473ffffffffffffffffffffffffffffffffffffffff1673ffffffffffffffffffffffffffffffffffffffff163373ffffffffffffffffffffffffffffffffffffffff1614151561109c57600080fd5b60055442101515156110ad57600080fd5b8073ffffffffffffffffffffffffffffffffffffffff166108fc3073ffffffffffffffffffffffffffffffffffffffff16319081150290604051600060405180830381858888f19350505050151561110457600080fd5b50565b600860009054906101000a900473ffffffffffffffffffffffffffffffffffffffff1681565b6000611168606461115a600a61114c86886111ad90919063ffffffff16565b6111c890919063ffffffff16565b6111ad90919063ffffffff16565b905092915050565b60055481565b600080828401905083811015151561118a57fe5b8091505092915050565b60008282111515156111a257fe5b818303905092915050565b60008082848115156111bb57fe5b0490508091505092915050565b600080828402905060008414806111e957508284828115156111e657fe5b04145b15156111f157fe5b80915050929150505600a165627a7a7230582018d607834d31db512de5b1cbd1166d2a24e04c652660e6c3b9f7e59c7b0fb04c00296060604052341561000f57600080fd5b612cca8061001e6000396000f300606060405260043610610041576000357c0100000000000000000000000000000000000000000000000000000000900463ffffffff1680635b7b72c114610046575b600080fd5b341561005157600080fd5b610123600480803573ffffffffffffffffffffffffffffffffffffffff1690602001909190803590602001909190803590602001908201803590602001908080601f0160208091040260200160405190810160405280939291908181526020018383808284378201915050505050509190803560ff1690602001909190803590602001908201803590602001908080601f016020809104026020016040519081016040528093929190818152602001838380828437820191505050505050919080351515906020019091905050610165565b604051808273ffffffffffffffffffffffffffffffffffffffff1673ffffffffffffffffffffffffffffffffffffffff16815260200191505060405180910390f35b600080308888888888886101776103ab565b808873ffffffffffffffffffffffffffffffffffffffff1673ffffffffffffffffffffffffffffffffffffffff1681526020018773ffffffffffffffffffffffffffffffffffffffff1673ffffffffffffffffffffffffffffffffffffffff168152602001868152602001806020018560ff1660ff1681526020018060200184151515158152602001838103835287818151815260200191508051906020019080838360005b8381101561023857808201518184015260208101905061021d565b50505050905090810190601f1680156102655780820380516001836020036101000a031916815260200191505b50838103825285818151815260200191508051906020019080838360005b8381101561029e578082015181840152602081019050610283565b50505050905090810190601f1680156102cb5780820380516001836020036101000a031916815260200191505b509950505050505050505050604051809103906000f08015156102ed57600080fd5b90508073ffffffffffffffffffffffffffffffffffffffff16633cebb823336040518263ffffffff167c0100000000000000000000000000000000000000000000000000000000028152600401808273ffffffffffffffffffffffffffffffffffffffff1673ffffffffffffffffffffffffffffffffffffffff168152602001915050600060405180830381600087803b151561038957600080fd5b6102c65a03f1151561039a57600080fd5b505050809150509695505050505050565b6040516128e3806103bc83390190560060606040526040805190810160405280600781526020017f4d4d545f302e32000000000000000000000000000000000000000000000000008152506004908051906020019062000051929190620001f9565b5034156200005e57600080fd5b604051620028e3380380620028e383398101604052808051906020019091908051906020019091908051906020019091908051820191906020018051906020019091908051820191906020018051906020019091905050336000806101000a81548173ffffffffffffffffffffffffffffffffffffffff021916908373ffffffffffffffffffffffffffffffffffffffff16021790555086600b60016101000a81548173ffffffffffffffffffffffffffffffffffffffff021916908373ffffffffffffffffffffffffffffffffffffffff16021790555083600190805190602001906200014e929190620001f9565b5082600260006101000a81548160ff021916908360ff160217905550816003908051906020019062000182929190620001f9565b5085600560006101000a81548173ffffffffffffffffffffffffffffffffffffffff021916908373ffffffffffffffffffffffffffffffffffffffff1602179055508460068190555080600b60006101000a81548160ff0219169083151502179055504360078190555050505050505050620002a8565b828054600181600116156101000203166002900490600052602060002090601f016020900481019282601f106200023c57805160ff19168380011785556200026d565b828001600101855582156200026d579182015b828111156200026c5782518255916020019190600101906200024f565b5b5090506200027c919062000280565b5090565b620002a591905b80821115620002a157600081600090555060010162000287565b5090565b90565b61262b80620002b86000396000f300606060405260043610610149576000357c0100000000000000000000000000000000000000000000000000000000900463ffffffff16806306fdde031461014b578063095ea7b3146101d9578063176345141461023357806318160ddd1461025c57806323b872dd14610285578063313ce567146102fe5780633cebb8231461032d5780634ee2cd7e1461036657806354fd4d50146103bc5780636638c0871461044a57806370a082311461054a57806380a5400114610597578063827f32c0146105ec57806395d89b4114610646578063981b24d0146106d4578063a9059cbb1461070b578063bef97c8714610765578063c5bcc4f114610792578063cae9ca51146107bb578063d3ce77fe14610858578063dd62ed3e146108b2578063df8de3e71461091e578063e77772fe14610957578063f41e60c5146109ac578063f77c4791146109d1575b005b341561015657600080fd5b61015e610a26565b6040518080602001828103825283818151815260200191508051906020019080838360005b8381101561019e578082015181840152602081019050610183565b50505050905090810190601f1680156101cb5780820380516001836020036101000a031916815260200191505b509250505060405180910390f35b34156101e457600080fd5b610219600480803573ffffffffffffffffffffffffffffffffffffffff16906020019091908035906020019091905050610ac4565b604051808215151515815260200191505060405180910390f35b341561023e57600080fd5b610246610c67565b6040518082815260200191505060405180910390f35b341561026757600080fd5b61026f610c6d565b6040518082815260200191505060405180910390f35b341561029057600080fd5b6102e4600480803573ffffffffffffffffffffffffffffffffffffffff1690602001909190803573ffffffffffffffffffffffffffffffffffffffff16906020019091908035906020019091905050610c7d565b604051808215151515815260200191505060405180910390f35b341561030957600080fd5b610311610e1d565b604051808260ff1660ff16815260200191505060405180910390f35b341561033857600080fd5b610364600480803573ffffffffffffffffffffffffffffffffffffffff16906020019091905050610e30565b005b341561037157600080fd5b6103a6600480803573ffffffffffffffffffffffffffffffffffffffff16906020019091908035906020019091905050610ece565b6040518082815260200191505060405180910390f35b34156103c757600080fd5b6103cf611143565b6040518080602001828103825283818151815260200191508051906020019080838360005b8381101561040f5780820151818401526020810190506103f4565b50505050905090810190601f16801561043c5780820380516001836020036101000a031916815260200191505b509250505060405180910390f35b341561045557600080fd5b610508600480803590602001908201803590602001908080601f0160208091040260200160405190810160405280939291908181526020018383808284378201915050505050509190803560ff1690602001909190803590602001908201803590602001908080601f0160208091040260200160405190810160405280939291908181526020018383808284378201915050505050509190803590602001909190803515159060200190919050506111e1565b604051808273ffffffffffffffffffffffffffffffffffffffff1673ffffffffffffffffffffffffffffffffffffffff16815260200191505060405180910390f35b341561055557600080fd5b610581600480803573ffffffffffffffffffffffffffffffffffffffff169060200190919050506114d8565b6040518082815260200191505060405180910390f35b34156105a257600080fd5b6105aa6114eb565b604051808273ffffffffffffffffffffffffffffffffffffffff1673ffffffffffffffffffffffffffffffffffffffff16815260200191505060405180910390f35b34156105f757600080fd5b61062c600480803573ffffffffffffffffffffffffffffffffffffffff16906020019091908035906020019091905050611511565b604051808215151515815260200191505060405180910390f35b341561065157600080fd5b61065961165b565b6040518080602001828103825283818151815260200191508051906020019080838360005b8381101561069957808201518184015260208101905061067e565b50505050905090810190601f1680156106c65780820380516001836020036101000a031916815260200191505b509250505060405180910390f35b34156106df57600080fd5b6106f560048080359060200190919050506116f9565b6040518082815260200191505060405180910390f35b341561071657600080fd5b61074b600480803573ffffffffffffffffffffffffffffffffffffffff16906020019091908035906020019091905050611882565b604051808215151515815260200191505060405180910390f35b341561077057600080fd5b6107786118b2565b604051808215151515815260200191505060405180910390f35b341561079d57600080fd5b6107a56118c5565b6040518082815260200191505060405180910390f35b34156107c657600080fd5b61083e600480803573ffffffffffffffffffffffffffffffffffffffff1690602001909190803590602001909190803590602001908201803590602001908080601f016020809104026020016040519081016040528093929190818152602001838380828437820191505050505050919050506118cb565b604051808215151515815260200191505060405180910390f35b341561086357600080fd5b610898600480803573ffffffffffffffffffffffffffffffffffffffff16906020019091908035906020019091905050611a44565b604051808215151515815260200191505060405180910390f35b34156108bd57600080fd5b610908600480803573ffffffffffffffffffffffffffffffffffffffff1690602001909190803573ffffffffffffffffffffffffffffffffffffffff16906020019091905050611b8a565b6040518082815260200191505060405180910390f35b341561092957600080fd5b610955600480803573ffffffffffffffffffffffffffffffffffffffff16906020019091905050611c11565b005b341561096257600080fd5b61096a611f42565b604051808273ffffffffffffffffffffffffffffffffffffffff1673ffffffffffffffffffffffffffffffffffffffff16815260200191505060405180910390f35b34156109b757600080fd5b6109cf60048080351515906020019091905050611f68565b005b34156109dc57600080fd5b6109e4611fe0565b604051808273ffffffffffffffffffffffffffffffffffffffff1673ffffffffffffffffffffffffffffffffffffffff16815260200191505060405180910390f35b60018054600181600116156101000203166002900480601f016020809104026020016040519081016040528092919081815260200182805460018160011615610100020316600290048015610abc5780601f10610a9157610100808354040283529160200191610abc565b820191906000526020600020905b815481529060010190602001808311610a9f57829003601f168201915b505050505081565b6000600b60009054906101000a900460ff161515610ae157600080fd5b6000821480610b6c57506000600960003373ffffffffffffffffffffffffffffffffffffffff1673ffffffffffffffffffffffffffffffffffffffff16815260200190815260200160002060008573ffffffffffffffffffffffffffffffffffffffff1673ffffffffffffffffffffffffffffffffffffffff16815260200190815260200160002054145b1515610b7757600080fd5b81600960003373ffffffffffffffffffffffffffffffffffffffff1673ffffffffffffffffffffffffffffffffffffffff16815260200190815260200160002060008573ffffffffffffffffffffffffffffffffffffffff1673ffffffffffffffffffffffffffffffffffffffff168152602001908152602001600020819055508273ffffffffffffffffffffffffffffffffffffffff163373ffffffffffffffffffffffffffffffffffffffff167f8c5be1e5ebec7d5bd14f71427d1e84f3dd0314c0f7b2291e5b200ac8c7c3b925846040518082815260200191505060405180910390a36001905092915050565b60075481565b6000610c78436116f9565b905090565b60008060009054906101000a900473ffffffffffffffffffffffffffffffffffffffff1673ffffffffffffffffffffffffffffffffffffffff163373ffffffffffffffffffffffffffffffffffffffff16141515610e0857600b60009054906101000a900460ff161515610cf057600080fd5b81600960008673ffffffffffffffffffffffffffffffffffffffff1673ffffffffffffffffffffffffffffffffffffffff16815260200190815260200160002060003373ffffffffffffffffffffffffffffffffffffffff1673ffffffffffffffffffffffffffffffffffffffff168152602001908152602001600020541015610d7d5760009050610e16565b81600960008673ffffffffffffffffffffffffffffffffffffffff1673ffffffffffffffffffffffffffffffffffffffff16815260200190815260200160002060003373ffffffffffffffffffffffffffffffffffffffff1673ffffffffffffffffffffffffffffffffffffffff168152602001908152602001600020600082825403925050819055505b610e13848484612005565b90505b9392505050565b600260009054906101000a900460ff1681565b6000809054906101000a900473ffffffffffffffffffffffffffffffffffffffff1673ffffffffffffffffffffffffffffffffffffffff163373ffffffffffffffffffffffffffffffffffffffff16141515610e8b57600080fd5b806000806101000a81548173ffffffffffffffffffffffffffffffffffffffff021916908373ffffffffffffffffffffffffffffffffffffffff16021790555050565b600080600860008573ffffffffffffffffffffffffffffffffffffffff1673ffffffffffffffffffffffffffffffffffffffff168152602001908152602001600020805490501480610fa8575081600860008573ffffffffffffffffffffffffffffffffffffffff1673ffffffffffffffffffffffffffffffffffffffff1681526020019081526020016000206000815481101515610f6957fe5b906000526020600020900160000160009054906101000a90046fffffffffffffffffffffffffffffffff166fffffffffffffffffffffffffffffffff16115b156110f2576000600560009054906101000a900473ffffffffffffffffffffffffffffffffffffffff1673ffffffffffffffffffffffffffffffffffffffff161415156110e957600560009054906101000a900473ffffffffffffffffffffffffffffffffffffffff1673ffffffffffffffffffffffffffffffffffffffff16634ee2cd7e8461103a856006546121ca565b6000604051602001526040518363ffffffff167c0100000000000000000000000000000000000000000000000000000000028152600401808373ffffffffffffffffffffffffffffffffffffffff1673ffffffffffffffffffffffffffffffffffffffff16815260200182815260200192505050602060405180830381600087803b15156110c757600080fd5b6102c65a03f115156110d857600080fd5b50505060405180519050905061113d565b6000905061113d565b61113a600860008573ffffffffffffffffffffffffffffffffffffffff1673ffffffffffffffffffffffffffffffffffffffff168152602001908152602001600020836121e3565b90505b92915050565b60048054600181600116156101000203166002900480601f0160208091040260200160405190810160405280929190818152602001828054600181600116156101000203166002900480156111d95780601f106111ae576101008083540402835291602001916111d9565b820191906000526020600020905b8154815290600101906020018083116111bc57829003601f168201915b505050505081565b60008060008414156111f1574393505b600b60019054906101000a900473ffffffffffffffffffffffffffffffffffffffff1673ffffffffffffffffffffffffffffffffffffffff16635b7b72c130868a8a8a896000604051602001526040518763ffffffff167c0100000000000000000000000000000000000000000000000000000000028152600401808773ffffffffffffffffffffffffffffffffffffffff1673ffffffffffffffffffffffffffffffffffffffff168152602001868152602001806020018560ff1660ff1681526020018060200184151515158152602001838103835287818151815260200191508051906020019080838360005b838110156112fb5780820151818401526020810190506112e0565b50505050905090810190601f1680156113285780820380516001836020036101000a031916815260200191505b50838103825285818151815260200191508051906020019080838360005b83811015611361578082015181840152602081019050611346565b50505050905090810190601f16801561138e5780820380516001836020036101000a031916815260200191505b5098505050505050505050602060405180830381600087803b15156113b257600080fd5b6102c65a03f115156113c357600080fd5b5050506040518051905090508073ffffffffffffffffffffffffffffffffffffffff16633cebb823336040518263ffffffff167c0100000000000000000000000000000000000000000000000000000000028152600401808273ffffffffffffffffffffffffffffffffffffffff1673ffffffffffffffffffffffffffffffffffffffff168152602001915050600060405180830381600087803b151561146957600080fd5b6102c65a03f1151561147a57600080fd5b5050508073ffffffffffffffffffffffffffffffffffffffff167f086c875b377f900b07ce03575813022f05dd10ed7640b5282cf6d3c3fc352ade856040518082815260200191505060405180910390a28091505095945050505050565b60006114e48243610ece565b9050919050565b600560009054906101000a900473ffffffffffffffffffffffffffffffffffffffff1681565b60008060008060009054906101000a900473ffffffffffffffffffffffffffffffffffffffff1673ffffffffffffffffffffffffffffffffffffffff163373ffffffffffffffffffffffffffffffffffffffff1614151561157157600080fd5b611579610c6d565b9150818483011015151561158c57600080fd5b611595856114d8565b905080848201101515156115a857600080fd5b6115b5600a8584016123f7565b6115ff600860008773ffffffffffffffffffffffffffffffffffffffff1673ffffffffffffffffffffffffffffffffffffffff1681526020019081526020016000208583016123f7565b8473ffffffffffffffffffffffffffffffffffffffff1660007fddf252ad1be2c89b69c2b068fc378daa952ba7f163c4a11628f55a4df523b3ef866040518082815260200191505060405180910390a360019250505092915050565b60038054600181600116156101000203166002900480601f0160208091040260200160405190810160405280929190818152602001828054600181600116156101000203166002900480156116f15780601f106116c6576101008083540402835291602001916116f1565b820191906000526020600020905b8154815290600101906020018083116116d457829003601f168201915b505050505081565b600080600a805490501480611759575081600a600081548110151561171a57fe5b906000526020600020900160000160009054906101000a90046fffffffffffffffffffffffffffffffff166fffffffffffffffffffffffffffffffff16115b1561186f576000600560009054906101000a900473ffffffffffffffffffffffffffffffffffffffff1673ffffffffffffffffffffffffffffffffffffffff1614151561186657600560009054906101000a900473ffffffffffffffffffffffffffffffffffffffff1673ffffffffffffffffffffffffffffffffffffffff1663981b24d06117ea846006546121ca565b6000604051602001526040518263ffffffff167c010000000000000000000000000000000000000000000000000000000002815260040180828152602001915050602060405180830381600087803b151561184457600080fd5b6102c65a03f1151561185557600080fd5b50505060405180519050905061187d565b6000905061187d565b61187a600a836121e3565b90505b919050565b6000600b60009054906101000a900460ff16151561189f57600080fd5b6118aa338484612005565b905092915050565b600b60009054906101000a900460ff1681565b60065481565b60006118d78484610ac4565b15156118e257600080fd5b8373ffffffffffffffffffffffffffffffffffffffff16638f4ffcb1338530866040518563ffffffff167c0100000000000000000000000000000000000000000000000000000000028152600401808573ffffffffffffffffffffffffffffffffffffffff1673ffffffffffffffffffffffffffffffffffffffff1681526020018481526020018373ffffffffffffffffffffffffffffffffffffffff1673ffffffffffffffffffffffffffffffffffffffff16815260200180602001828103825283818151815260200191508051906020019080838360005b838110156119d75780820151818401526020810190506119bc565b50505050905090810190601f168015611a045780820380516001836020036101000a031916815260200191505b5095505050505050600060405180830381600087803b1515611a2557600080fd5b6102c65a03f11515611a3657600080fd5b505050600190509392505050565b60008060008060009054906101000a900473ffffffffffffffffffffffffffffffffffffffff1673ffffffffffffffffffffffffffffffffffffffff163373ffffffffffffffffffffffffffffffffffffffff16141515611aa457600080fd5b611aac610c6d565b9150838210151515611abd57600080fd5b611ac6856114d8565b9050838110151515611ad757600080fd5b611ae4600a8584036123f7565b611b2e600860008773ffffffffffffffffffffffffffffffffffffffff1673ffffffffffffffffffffffffffffffffffffffff1681526020019081526020016000208583036123f7565b60008573ffffffffffffffffffffffffffffffffffffffff167fddf252ad1be2c89b69c2b068fc378daa952ba7f163c4a11628f55a4df523b3ef866040518082815260200191505060405180910390a360019250505092915050565b6000600960008473ffffffffffffffffffffffffffffffffffffffff1673ffffffffffffffffffffffffffffffffffffffff16815260200190815260200160002060008373ffffffffffffffffffffffffffffffffffffffff1673ffffffffffffffffffffffffffffffffffffffff16815260200190815260200160002054905092915050565b6000806000809054906101000a900473ffffffffffffffffffffffffffffffffffffffff1673ffffffffffffffffffffffffffffffffffffffff163373ffffffffffffffffffffffffffffffffffffffff16141515611c6f57600080fd5b60008373ffffffffffffffffffffffffffffffffffffffff161415611d0b576000809054906101000a900473ffffffffffffffffffffffffffffffffffffffff1673ffffffffffffffffffffffffffffffffffffffff166108fc3073ffffffffffffffffffffffffffffffffffffffff16319081150290604051600060405180830381858888f193505050501515611d0657600080fd5b611f3d565b8291508173ffffffffffffffffffffffffffffffffffffffff166370a08231306000604051602001526040518263ffffffff167c0100000000000000000000000000000000000000000000000000000000028152600401808273ffffffffffffffffffffffffffffffffffffffff1673ffffffffffffffffffffffffffffffffffffffff168152602001915050602060405180830381600087803b1515611db157600080fd5b6102c65a03f11515611dc257600080fd5b5050506040518051905090508173ffffffffffffffffffffffffffffffffffffffff1663a9059cbb6000809054906101000a900473ffffffffffffffffffffffffffffffffffffffff16836000604051602001526040518363ffffffff167c0100000000000000000000000000000000000000000000000000000000028152600401808373ffffffffffffffffffffffffffffffffffffffff1673ffffffffffffffffffffffffffffffffffffffff16815260200182815260200192505050602060405180830381600087803b1515611e9a57600080fd5b6102c65a03f11515611eab57600080fd5b50505060405180519050506000809054906101000a900473ffffffffffffffffffffffffffffffffffffffff1673ffffffffffffffffffffffffffffffffffffffff168373ffffffffffffffffffffffffffffffffffffffff167ff931edb47c50b4b4104c187b5814a9aef5f709e17e2ecf9617e860cacade929c836040518082815260200191505060405180910390a35b505050565b600b60019054906101000a900473ffffffffffffffffffffffffffffffffffffffff1681565b6000809054906101000a900473ffffffffffffffffffffffffffffffffffffffff1673ffffffffffffffffffffffffffffffffffffffff163373ffffffffffffffffffffffffffffffffffffffff16141515611fc357600080fd5b80600b60006101000a81548160ff02191690831515021790555050565b6000809054906101000a900473ffffffffffffffffffffffffffffffffffffffff1681565b60008060008084141561201b57600192506121c1565b4360065410151561202b57600080fd5b60008573ffffffffffffffffffffffffffffffffffffffff161415801561207e57503073ffffffffffffffffffffffffffffffffffffffff168573ffffffffffffffffffffffffffffffffffffffff1614155b151561208957600080fd5b6120938643610ece565b9150838210156120a657600092506121c1565b6120f0600860008873ffffffffffffffffffffffffffffffffffffffff1673ffffffffffffffffffffffffffffffffffffffff1681526020019081526020016000208584036123f7565b6120fa8543610ece565b9050808482011015151561210d57600080fd5b612157600860008773ffffffffffffffffffffffffffffffffffffffff1673ffffffffffffffffffffffffffffffffffffffff1681526020019081526020016000208583016123f7565b8473ffffffffffffffffffffffffffffffffffffffff168673ffffffffffffffffffffffffffffffffffffffff167fddf252ad1be2c89b69c2b068fc378daa952ba7f163c4a11628f55a4df523b3ef866040518082815260200191505060405180910390a3600192505b50509392505050565b60008183106121d957816121db565b825b905092915050565b6000806000806000868054905014156121ff57600093506123ee565b85600187805490500381548110151561221457fe5b906000526020600020900160000160009054906101000a90046fffffffffffffffffffffffffffffffff166fffffffffffffffffffffffffffffffff16851015156122b25785600187805490500381548110151561226e57fe5b906000526020600020900160000160109054906101000a90046fffffffffffffffffffffffffffffffff166fffffffffffffffffffffffffffffffff1693506123ee565b8560008154811015156122c157fe5b906000526020600020900160000160009054906101000a90046fffffffffffffffffffffffffffffffff166fffffffffffffffffffffffffffffffff1685101561230e57600093506123ee565b60009250600186805490500391505b828211156123a057600260018484010181151561233657fe5b04905084868281548110151561234857fe5b906000526020600020900160000160009054906101000a90046fffffffffffffffffffffffffffffffff166fffffffffffffffffffffffffffffffff161115156123945780925061239b565b6001810391505b61231d565b85838154811015156123ae57fe5b906000526020600020900160000160109054906101000a90046fffffffffffffffffffffffffffffffff166fffffffffffffffffffffffffffffffff1693505b50505092915050565b60008060008480549050148061245d57504384600186805490500381548110151561241e57fe5b906000526020600020900160000160009054906101000a90046fffffffffffffffffffffffffffffffff166fffffffffffffffffffffffffffffffff16105b1561250a5783848054809190600101612476919061256e565b81548110151561248257fe5b90600052602060002090019150438260000160006101000a8154816fffffffffffffffffffffffffffffffff02191690836fffffffffffffffffffffffffffffffff160217905550828260000160106101000a8154816fffffffffffffffffffffffffffffffff02191690836fffffffffffffffffffffffffffffffff160217905550612568565b83600185805490500381548110151561251f57fe5b90600052602060002090019050828160000160106101000a8154816fffffffffffffffffffffffffffffffff02191690836fffffffffffffffffffffffffffffffff1602179055505b50505050565b81548183558181151161259557818360005260206000209182019101612594919061259a565b5b505050565b6125fc91905b808211156125f857600080820160006101000a8154906fffffffffffffffffffffffffffffffff02191690556000820160106101000a8154906fffffffffffffffffffffffffffffffff0219169055506001016125a0565b5090565b905600a165627a7a72305820f8463c6e9d1f02ddb9002666d6871f474ca98788d92e756baac2c04f1ca0b4c50029a165627a7a72305820ff3683db64d976816fd2641bddd78e6b88d135a3566798ffb6ff3a5240d92a1c0029",
  "source": "pragma solidity 0.4.18;\nimport './SafeMath.sol';\nimport './minime/MiniMeToken.sol';\n\ncontract Servesa {\n  using SafeMath for uint256;\n\n  uint public version = 0;\n\n  struct Funder {\n    bool exists;\n    uint tokenCount;\n    uint totalPurchasePrice;\n  }\n\n  mapping(address => Funder) public funders;\n\n  bool public live = true; // For sunsetting contract\n  uint public totalCurrentFunders = 0; // Keeps track of total funders\n  uint public withdrawalCounter = 0; // Keeps track of how many withdrawals have taken place\n  uint public sunsetWithdrawDate;\n  uint public sunsetWithdrawalPeriod;\n\n  MiniMeToken public tokenContract;\n  MiniMeTokenFactory public tokenFactory;\n\n  address owner;\n  bool ownerCanBurn;\n  bool ownerCanSpend;\n  uint tokenBasePrice;\n  uint tokenPriceExponent;\n  uint tokenPriceExponentDivisor;\n\n  uint public contractStartTime; // For accounting purposes\n\n  event NewContract(uint testOne, string testString);\n  event Buy(address indexed funder, uint tokenCount);\n  event Sell(address indexed funder, uint tokenCount);\n  event Burn(address indexed funder, uint tokenCount);\n  event Drain(uint amount);\n  event Sunset(bool hasSunset);\n\n  function Servesa(\n    address ownerAddress,\n    bool ownerCanBurnInit,\n    bool ownerCanSpendInit,\n    uint tokenBasePriceInit,\n    uint tokenPriceExponentInit,\n    uint tokenPriceExponentDivisorInit,\n    uint sunsetWithdrawPeriodInit) {\n\n    sunsetWithdrawalPeriod = sunsetWithdrawPeriodInit;\n\n    owner = ownerAddress;\n    ownerCanBurn = ownerCanBurnInit;\n    ownerCanSpend = ownerCanSpendInit;\n    tokenBasePrice = tokenBasePriceInit;\n    tokenPriceExponent = tokenPriceExponentInit;\n    tokenPriceExponentDivisor = tokenPriceExponentDivisorInit;\n\n    uint8 tokenDecimals = 10;\n    tokenFactory = new MiniMeTokenFactory();\n    tokenContract = tokenFactory.createCloneToken(0x0, 0, 'asdf', tokenDecimals, 'asdf1', true);\n\n    contractStartTime = now;\n\n    NewContract(12900, 'test message ground control');\n  }\n\n  // Modifiers\n\n  // Lifecycle\n  modifier onlyWhenLive() {\n    require(live);\n    _;\n  }\n  modifier onlyWhenSunset() {\n    require(!live);\n    _;\n  }\n\n  // Contract options\n  modifier canBurn() {\n    require(ownerCanBurn);\n    _;\n  }\n  modifier canSpend() {\n    require(ownerCanSpend);\n    _;\n  }\n\n  // Auth\n  modifier onlyByOwner() {\n    require(msg.sender == owner);\n    _;\n  }\n  modifier onlyByFunder() {\n    require(isFunder(msg.sender));\n    _;\n  }\n\n  /*\n  * External accounts can pay directly to contract to fund it.\n  */\n  function () payable {\n    buy();\n  }\n\n  /*\n  * Buy: exchange ETH for tokens\n  */\n\n  function buy() public payable onlyWhenLive {\n\n    /* value must be greater than buy price*/\n    require(msg.value >= calculateNextBuyPrice(tokenBasePrice));\n\n    // Only increase total funders when we have a new funder\n    if(!isFunder(msg.sender)) {\n      totalCurrentFunders = totalCurrentFunders.add(1); // Increase total funder count\n\n      funders[msg.sender] = Funder({\n        exists: true,\n        tokenCount: 1,\n        totalPurchasePrice: msg.value\n      });\n    }\n    else {\n      funders[msg.sender].tokenCount = funders[msg.sender].tokenCount + 1;\n      funders[msg.sender].totalPurchasePrice = funders[msg.sender].totalPurchasePrice + msg.value;\n    }\n\n    // update token ledger escrow balance\n    // update token count and prices\n    // record transaction\n    Buy(msg.sender, funders[msg.sender].tokenCount);\n  }\n\n  /*\n  * Sell: exchange tokens for ETH\n  */\n\n  function sell() public onlyWhenLive onlyByFunder {\n\n    /* Must be greater than buy price*/\n    /*require(msg.value <= funders[msg.sender].tokenCount);*/\n\n    // Only increase total funders when we have a new funder\n    if(!isFunder(msg.sender)) {\n\n      // get sender token count\n      // update ledger\n\n      // remove founder if count == 0\n      totalCurrentFunders = totalCurrentFunders.sub(1); // Decrease total funder count\n\n      // update total token count\n      // record transaction\n      Sell(msg.sender, funders[msg.sender].tokenCount);\n\n    }\n    else {\n      /* Throw Error*/\n    }\n\n  }\n\n  /*\n  * Burn: delete tokens without affecting escrow balance\n  */\n\n  function burn() public onlyWhenLive onlyByOwner canBurn {\n\n\n    Burn(msg.sender, 10);\n  }\n\n  /*\n  * Burn: delete tokens without affecting escrow balance\n  */\n\n  function spend() public onlyWhenLive onlyByOwner canSpend {\n\n\n    Drain(10);\n  }\n\n  // Pure functions\n\n  /*\n  * use pricing function to determine next token's 'buy' price\n  */\n  function calculateNextBuyPrice(uint tokenPrice) public returns (uint){\n\n    // do more math here\n    return tokenPrice;\n  }\n\n  /*\n  * use pricing function to determine the current token 'sell' price\n  */\n  function calculateNextSellPrice(uint escrowBalance, uint tokenSupply) public returns (uint){\n\n    // escrow balance / token supply\n    return escrowBalance.div(tokenSupply).mul(10).div(100);\n  }\n\n  // Getter functions\n\n  /*\n  * To calculate the refund amount we look at how many times the owner\n  * has withdrawn since the funder added their funds.\n  * We use that deduct 10% for each withdrawal.\n  */\n\n  function getOwner() public constant returns (address) {\n    return owner;\n  }\n\n  function getCurrentTotalFunders() public constant returns (uint) {\n    return totalCurrentFunders;\n  }\n\n  function getContractBalance() public constant returns (uint256 balance) {\n    balance = this.balance;\n  }\n\n  function isFunder(address addr) public constant returns (bool) {\n    return funders[addr].exists;\n  }\n\n  // State changing functions\n  function setTokenBasePrice(uint amount) external onlyByOwner {\n    require(amount > 0);\n    tokenBasePrice = amount;\n  }\n\n  /* --- Sunsetting --- */\n  /*\n  * The owner can decide to stop using this contract.\n  * They use this sunset function to put it into sunset mode.\n  * The owner can then swipe rest of the funds after a set time\n  * if funders have not withdrawn their funds.\n  */\n\n  function sunset() external onlyByOwner onlyWhenLive {\n    sunsetWithdrawDate = now.add(sunsetWithdrawalPeriod);\n    live = false;\n\n    Sunset(true);\n  }\n\n  function swipe(address recipient) external onlyWhenSunset onlyByOwner {\n    require(now >= sunsetWithdrawDate);\n\n    recipient.transfer(this.balance);\n  }\n\n  /* --- Token Contract Forwarding Controller Functions --- */\n  /*\n  * Allows owner to call two additional functions on the token contract:\n  * claimTokens\n  * enabledTransfers\n  *\n  */\n  function tokenContractClaimTokens(address _token) onlyByOwner  {\n    tokenContract.claimTokens(_token);\n  }\n  function tokenContractEnableTransfers(bool _transfersEnabled) onlyByOwner  {\n    tokenContract.enableTransfers(_transfersEnabled);\n  }\n}\n",
  "sourcePath": "/Users/mattlovan/Projects/notLinkedIn/contracts/Servesa.sol",
  "compiler": {
    "name": "solc",
    "version": "0.4.18+commit.9cf6e910.Emscripten.clang"
  },
  "schemaVersion": "1.0.1",
  "updatedAt": "2017-11-26T19:41:27.109Z"
}