{
  "contractName": "Servesa",
  "abi": [
    {
      "constant": true,
      "inputs": [
        {
          "name": "",
          "type": "address"
        }
      ],
      "name": "funders",
      "outputs": [
        {
          "name": "exists",
          "type": "bool"
        },
        {
          "name": "tokenCount",
          "type": "uint256"
        },
        {
          "name": "totalPurchasePrice",
          "type": "uint256"
        }
      ],
      "payable": false,
      "stateMutability": "view",
      "type": "function"
    },
    {
      "constant": true,
      "inputs": [
        {
          "name": "",
          "type": "address"
        }
      ],
      "name": "tokenBasePrice",
      "outputs": [
        {
          "name": "",
          "type": "uint256"
        },
        {
          "name": "tokenCount",
          "type": "uint256"
        },
        {
          "name": "totalPurchasePrice",
          "type": "uint256"
        }
      ],
      "payable": false,
      "stateMutability": "view",
      "type": "function"
    },
    {
      "constant": true,
      "inputs": [],
      "name": "contractStartTime",
      "outputs": [
        {
          "name": "",
          "type": "uint256"
        }
      ],
      "payable": false,
      "stateMutability": "view",
      "type": "function"
    },
    {
      "constant": true,
      "inputs": [
        {
          "name": "addr",
          "type": "address"
        }
      ],
      "name": "isFunderTokens",
      "outputs": [
        {
          "name": "",
          "type": "uint256"
        }
      ],
      "payable": false,
      "stateMutability": "view",
      "type": "function"
    },
    {
      "constant": false,
      "inputs": [
        {
          "name": "amount",
          "type": "uint256"
        }
      ],
      "name": "spend",
      "outputs": [
        {
          "name": "",
          "type": "bool"
        }
      ],
      "payable": false,
      "stateMutability": "nonpayable",
      "type": "function"
    },
    {
      "constant": true,
      "inputs": [
        {
          "name": "addr",
          "type": "address"
        }
      ],
      "name": "isFunder",
      "outputs": [
        {
          "name": "",
          "type": "bool"
        }
      ],
      "payable": false,
      "stateMutability": "view",
      "type": "function"
    },
    {
      "constant": true,
      "inputs": [],
      "name": "ownerCanBurn",
      "outputs": [
        {
          "name": "",
          "type": "bool"
        }
      ],
      "payable": false,
      "stateMutability": "view",
      "type": "function"
    },
    {
      "constant": true,
      "inputs": [
        {
          "name": "amount",
          "type": "uint256"
        }
      ],
      "name": "sunsetWithdrawalPeriod",
      "outputs": [
        {
          "name": "",
          "type": "uint256"
        }
      ],
      "payable": false,
      "stateMutability": "view",
      "type": "function"
    },
    {
      "constant": false,
      "inputs": [],
      "name": "sell",
      "outputs": [],
      "payable": false,
      "stateMutability": "nonpayable",
      "type": "function"
    },
    {
      "constant": true,
      "inputs": [],
      "name": "version",
      "outputs": [
        {
          "name": "",
          "type": "uint256"
        }
      ],
      "payable": false,
      "stateMutability": "view",
      "type": "function"
    },
    {
      "constant": true,
      "inputs": [],
      "name": "getCurrentTotalFunders",
      "outputs": [
        {
          "name": "",
          "type": "uint256"
        }
      ],
      "payable": false,
      "stateMutability": "view",
      "type": "function"
    },
    {
      "constant": true,
      "inputs": [],
      "name": "tokenPriceExponent",
      "outputs": [
        {
          "name": "",
          "type": "uint256"
        }
      ],
      "payable": false,
      "stateMutability": "view",
      "type": "function"
    },
    {
      "constant": true,
      "inputs": [],
      "name": "tokenPriceExponentDivisor",
      "outputs": [
        {
          "name": "",
          "type": "uint256"
        }
      ],
      "payable": false,
      "stateMutability": "view",
      "type": "function"
    },
    {
      "constant": true,
      "inputs": [],
      "name": "getContractBalance",
      "outputs": [
        {
          "name": "balance",
          "type": "uint256"
        }
      ],
      "payable": false,
      "stateMutability": "view",
      "type": "function"
    },
    {
      "constant": true,
      "inputs": [],
      "name": "getOwner",
      "outputs": [
        {
          "name": "",
          "type": "address"
        }
      ],
      "payable": false,
      "stateMutability": "view",
      "type": "function"
    },
    {
      "constant": false,
      "inputs": [
        {
          "name": "addr",
          "type": "address"
        }
      ],
      "name": "burn",
      "outputs": [
        {
          "name": "",
          "type": "address"
        }
      ],
      "payable": false,
      "stateMutability": "nonpayable",
      "type": "function"
    },
    {
      "constant": true,
      "inputs": [
        {
          "name": "_transfersEnabled",
          "type": "bool"
        }
      ],
      "name": "live",
      "outputs": [
        {
          "name": "",
          "type": "bool"
        }
      ],
      "payable": false,
      "stateMutability": "view",
      "type": "function"
    },
    {
      "constant": true,
      "inputs": [],
      "name": "totalCurrentFunders",
      "outputs": [
        {
          "name": "",
          "type": "uint256"
        }
      ],
      "payable": false,
      "stateMutability": "view",
      "type": "function"
    },
    {
      "constant": true,
      "inputs": [],
      "name": "ownerCanSpend",
      "outputs": [
        {
          "name": "",
          "type": "bool"
        }
      ],
      "payable": false,
      "stateMutability": "view",
      "type": "function"
    },
    {
      "constant": false,
      "inputs": [],
      "name": "buy",
      "outputs": [],
      "payable": true,
      "stateMutability": "payable",
      "type": "function"
    },
    {
      "constant": true,
      "inputs": [
        {
          "name": "_token",
          "type": "address"
        }
      ],
      "name": "totalCurrentTokens",
      "outputs": [
        {
          "name": "",
          "type": "uint256"
        }
      ],
      "payable": false,
      "stateMutability": "view",
      "type": "function"
    },
    {
      "constant": true,
      "inputs": [
        {
          "name": "addr",
          "type": "address"
        }
      ],
      "name": "isFunderPurchase",
      "outputs": [
        {
          "name": "",
          "type": "uint256"
        }
      ],
      "payable": false,
      "stateMutability": "view",
      "type": "function"
    },
    {
      "constant": true,
      "inputs": [],
      "name": "calculateNextSellPrice",
      "outputs": [
        {
          "name": "",
          "type": "uint256"
        }
      ],
      "payable": false,
      "stateMutability": "view",
      "type": "function"
    },
    {
      "constant": true,
      "inputs": [
        {
          "name": "escrowBalance",
          "type": "uint256"
        },
        {
          "name": "tokenSupply",
          "type": "uint256"
        }
      ],
      "name": "calculateNextBuyPrice",
      "outputs": [
        {
          "name": "",
          "type": "uint256"
        }
      ],
      "payable": false,
      "stateMutability": "view",
      "type": "function"
    },
    {
      "constant": true,
      "inputs": [],
      "name": "sunsetWithdrawDate",
      "outputs": [
        {
          "name": "",
          "type": "uint256"
        }
      ],
      "payable": false,
      "stateMutability": "view",
      "type": "function"
    },
    {
      "inputs": [
        {
          "name": "ownerAddress",
          "type": "address"
        },
        {
          "name": "ownerCanBurnInit",
          "type": "bool"
        },
        {
          "name": "ownerCanSpendInit",
          "type": "bool"
        },
        {
          "name": "tokenBasePriceInit",
          "type": "uint256"
        },
        {
          "name": "tokenPriceExponentInit",
          "type": "uint256"
        },
        {
          "name": "sunsetWithdrawPeriodInit",
          "type": "uint256"
        },
        {
          "name": "sunsetWithdrawPeriodInit",
          "type": "uint256"
        }
      ],
      "payable": false,
      "stateMutability": "nonpayable",
      "type": "constructor"
    },
    {
      "payable": true,
      "stateMutability": "payable",
      "type": "fallback"
    },
    {
      "anonymous": false,
      "inputs": [
        {
          "indexed": false,
          "name": "testOne",
          "type": "uint256"
        },
        {
          "indexed": false,
          "name": "testString",
          "type": "string"
        }
      ],
      "name": "NewContract",
      "type": "event"
    },
    {
      "anonymous": false,
      "inputs": [
        {
          "indexed": true,
          "name": "funder",
          "type": "address"
        },
        {
          "indexed": false,
          "name": "tokenCount",
          "type": "uint256"
        }
      ],
      "name": "Buy",
      "type": "event"
    },
    {
      "anonymous": false,
      "inputs": [
        {
          "indexed": true,
          "name": "funder",
          "type": "address"
        },
        {
          "indexed": false,
          "name": "tokenCount",
          "type": "uint256"
        }
      ],
      "name": "Sell",
      "type": "event"
    },
    {
      "anonymous": false,
      "inputs": [
        {
          "indexed": true,
          "name": "funder",
          "type": "address"
        },
        {
          "indexed": false,
          "name": "tokenCount",
          "type": "uint256"
        }
      ],
      "name": "Burn",
      "type": "event"
    },
    {
      "anonymous": false,
      "inputs": [
        {
          "indexed": false,
          "name": "amount",
          "type": "uint256"
        }
      ],
      "name": "Drain",
      "type": "event"
    },
    {
      "anonymous": false,
      "inputs": [
        {
          "indexed": false,
          "name": "hasSunset",
          "type": "bool"
        }
      ],
      "name": "Sunset",
      "type": "event"
    }
  ],
  "bytecode": "0x6060604052600080556001600260006101000a81548160ff021916908315150217905550600060065560006007556000600860146101000a81548160ff0219169083151502179055506000600860156101000a81548160ff021916908315150217905550655af3107a40006009556001600a55612710600b55341561008357600080fd5b60405160c0806114688339810160405280805190602001909190805190602001909190805190602001909190805190602001909190805190602001909190805190602001909190505085600860006101000a81548173ffffffffffffffffffffffffffffffffffffffff021916908373ffffffffffffffffffffffffffffffffffffffff16021790555084600860146101000a81548160ff02191690831515021790555083600860156101000a81548160ff0219169083151502179055508260098190555081600a8190555080600481905550426005819055507f47c75b3880596e8d066c74e9ac5742a287f07f32f83dafdb29b5a39a592239f761326460405180828152602001806020018281038252601b8152602001807f74657374206d6573736167652067726f756e6420636f6e74726f6c00000000008152506020019250505060405180910390a1505050505050611284806101e46000396000f300606060405260043610610149576000357c0100000000000000000000000000000000000000000000000000000000900463ffffffff168063031b3677146101535780630baf0375146101b25780630c3d5157146101db5780631da95d5c146102045780631dbf3bc7146102515780631ea48870146102745780632cecddc1146102c557806339b8dc40146102f2578063457100741461031b57806354fd4d50146103305780635896521b1461035957806359afc278146103825780636abf4d26146103ab5780636f9fb98a146103d4578063893d20e8146103fd57806389afcb4414610452578063957aa58c1461048b578063962ffeae146104b85780639c5ed3d6146104e1578063a6f2ae3a1461050e578063ba1de6c714610518578063c3b016bd14610541578063d7d771441461058e578063f76e5c31146105b7578063fa2e9db8146105e0575b610151610609565b005b341561015e57600080fd5b61018a600480803573ffffffffffffffffffffffffffffffffffffffff1690602001909190505061093d565b6040518084151515158152602001838152602001828152602001935050505060405180910390f35b34156101bd57600080fd5b6101c5610974565b6040518082815260200191505060405180910390f35b34156101e657600080fd5b6101ee61097a565b6040518082815260200191505060405180910390f35b341561020f57600080fd5b61023b600480803573ffffffffffffffffffffffffffffffffffffffff16906020019091905050610980565b6040518082815260200191505060405180910390f35b341561025c57600080fd5b61027260048080359060200190919050506109cc565b005b341561027f57600080fd5b6102ab600480803573ffffffffffffffffffffffffffffffffffffffff16906020019091905050610ad8565b604051808215151515815260200191505060405180910390f35b34156102d057600080fd5b6102d8610b31565b604051808215151515815260200191505060405180910390f35b34156102fd57600080fd5b610305610b44565b6040518082815260200191505060405180910390f35b341561032657600080fd5b61032e610b4a565b005b341561033b57600080fd5b610343610ddd565b6040518082815260200191505060405180910390f35b341561036457600080fd5b61036c610de3565b6040518082815260200191505060405180910390f35b341561038d57600080fd5b610395610ded565b6040518082815260200191505060405180910390f35b34156103b657600080fd5b6103be610df3565b6040518082815260200191505060405180910390f35b34156103df57600080fd5b6103e7610df9565b6040518082815260200191505060405180910390f35b341561040857600080fd5b610410610e18565b604051808273ffffffffffffffffffffffffffffffffffffffff1673ffffffffffffffffffffffffffffffffffffffff16815260200191505060405180910390f35b341561045d57600080fd5b610489600480803573ffffffffffffffffffffffffffffffffffffffff16906020019091905050610e42565b005b341561049657600080fd5b61049e6110bf565b604051808215151515815260200191505060405180910390f35b34156104c357600080fd5b6104cb6110d2565b6040518082815260200191505060405180910390f35b34156104ec57600080fd5b6104f46110d8565b604051808215151515815260200191505060405180910390f35b610516610609565b005b341561052357600080fd5b61052b6110eb565b6040518082815260200191505060405180910390f35b341561054c57600080fd5b610578600480803573ffffffffffffffffffffffffffffffffffffffff169060200190919050506110f1565b6040518082815260200191505060405180910390f35b341561059957600080fd5b6105a161113d565b6040518082815260200191505060405180910390f35b34156105c257600080fd5b6105ca611167565b6040518082815260200191505060405180910390f35b34156105eb57600080fd5b6105f3611198565b6040518082815260200191505060405180910390f35b6000600260009054906101000a900460ff16151561062657600080fd5b61062e611167565b905080341015151561063f57600080fd5b61064833610ad8565b151561070557610664600160075461119e90919063ffffffff16565b6007819055506060604051908101604052806001151581526020016001815260200134815250600160003373ffffffffffffffffffffffffffffffffffffffff1673ffffffffffffffffffffffffffffffffffffffff16815260200190815260200160002060008201518160000160006101000a81548160ff021916908315150217905550602082015181600101556040820151816002015590505061083c565b61075a60018060003373ffffffffffffffffffffffffffffffffffffffff1673ffffffffffffffffffffffffffffffffffffffff1681526020019081526020016000206001015461119e90919063ffffffff16565b600160003373ffffffffffffffffffffffffffffffffffffffff1673ffffffffffffffffffffffffffffffffffffffff168152602001908152602001600020600101819055506107f581600160003373ffffffffffffffffffffffffffffffffffffffff1673ffffffffffffffffffffffffffffffffffffffff1681526020019081526020016000206002015461119e90919063ffffffff16565b600160003373ffffffffffffffffffffffffffffffffffffffff1673ffffffffffffffffffffffffffffffffffffffff168152602001908152602001600020600201819055505b610852600160065461119e90919063ffffffff16565b6006819055503373ffffffffffffffffffffffffffffffffffffffff166108fc61088583346111bc90919063ffffffff16565b9081150290604051600060405180830381858888f1935050505015156108aa57600080fd5b3373ffffffffffffffffffffffffffffffffffffffff167fe3d4187f6ca4248660cc0ac8b8056515bac4a8132be2eca31d6d0cc170722a7e600160003373ffffffffffffffffffffffffffffffffffffffff1673ffffffffffffffffffffffffffffffffffffffff168152602001908152602001600020600101546040518082815260200191505060405180910390a250565b60016020528060005260406000206000915090508060000160009054906101000a900460ff16908060010154908060020154905083565b60095481565b60055481565b6000600160008373ffffffffffffffffffffffffffffffffffffffff1673ffffffffffffffffffffffffffffffffffffffff168152602001908152602001600020600101549050919050565b600260009054906101000a900460ff1615156109e757600080fd5b600860009054906101000a900473ffffffffffffffffffffffffffffffffffffffff1673ffffffffffffffffffffffffffffffffffffffff163373ffffffffffffffffffffffffffffffffffffffff16141515610a4357600080fd5b600860159054906101000a900460ff161515610a5e57600080fd5b3373ffffffffffffffffffffffffffffffffffffffff166108fc829081150290604051600060405180830381858888f193505050501515610a9e57600080fd5b7f7f36875e1aa63a260a86253b4178fbeb52d1d36819b47a29d15ec2a259e49efa816040518082815260200191505060405180910390a150565b6000600160008373ffffffffffffffffffffffffffffffffffffffff1673ffffffffffffffffffffffffffffffffffffffff16815260200190815260200160002060000160009054906101000a900460ff169050919050565b600860149054906101000a900460ff1681565b60045481565b6000600260009054906101000a900460ff161515610b6757600080fd5b610b7033610ad8565b1515610b7b57600080fd5b610b8361113d565b9050610bda60018060003373ffffffffffffffffffffffffffffffffffffffff1673ffffffffffffffffffffffffffffffffffffffff168152602001908152602001600020600101546111bc90919063ffffffff16565b600160003373ffffffffffffffffffffffffffffffffffffffff1673ffffffffffffffffffffffffffffffffffffffff16815260200190815260200160002060010181905550610c3660016006546111bc90919063ffffffff16565b6006819055506000600160003373ffffffffffffffffffffffffffffffffffffffff1673ffffffffffffffffffffffffffffffffffffffff168152602001908152602001600020600101541415610d0a57600160003373ffffffffffffffffffffffffffffffffffffffff1673ffffffffffffffffffffffffffffffffffffffff168152602001908152602001600020600080820160006101000a81549060ff0219169055600182016000905560028201600090555050610d0360016007546111bc90919063ffffffff16565b6007819055505b3373ffffffffffffffffffffffffffffffffffffffff166108fc829081150290604051600060405180830381858888f193505050501515610d4a57600080fd5b3373ffffffffffffffffffffffffffffffffffffffff167f5e5e995ce3133561afceaa51a9a154d5db228cd7525d34df5185582c18d3df09600160003373ffffffffffffffffffffffffffffffffffffffff1673ffffffffffffffffffffffffffffffffffffffff168152602001908152602001600020600101546040518082815260200191505060405180910390a250565b60005481565b6000600754905090565b600a5481565b600b5481565b60003073ffffffffffffffffffffffffffffffffffffffff1631905090565b6000600860009054906101000a900473ffffffffffffffffffffffffffffffffffffffff16905090565b600260009054906101000a900460ff161515610e5d57600080fd5b600860009054906101000a900473ffffffffffffffffffffffffffffffffffffffff1673ffffffffffffffffffffffffffffffffffffffff163373ffffffffffffffffffffffffffffffffffffffff16141515610eb957600080fd5b600860149054906101000a900460ff161515610ed457600080fd5b610edd81610ad8565b1515610ee857600080fd5b610f3d60018060008473ffffffffffffffffffffffffffffffffffffffff1673ffffffffffffffffffffffffffffffffffffffff168152602001908152602001600020600101546111bc90919063ffffffff16565b600160008373ffffffffffffffffffffffffffffffffffffffff1673ffffffffffffffffffffffffffffffffffffffff168152602001908152602001600020600101819055506000600160008373ffffffffffffffffffffffffffffffffffffffff1673ffffffffffffffffffffffffffffffffffffffff16815260200190815260200160002060010154141561105157600160008273ffffffffffffffffffffffffffffffffffffffff1673ffffffffffffffffffffffffffffffffffffffff168152602001908152602001600020600080820160006101000a81549060ff021916905560018201600090556002820160009055505061104a60016007546111bc90919063ffffffff16565b6007819055505b61106760016006546111bc90919063ffffffff16565b6006819055508073ffffffffffffffffffffffffffffffffffffffff167fcc16f5dbb4873280815c1ee09dbd06736cffcc184412cf7a71a0fdb75d397ca560016040518082815260200191505060405180910390a250565b600260009054906101000a900460ff1681565b60075481565b600860159054906101000a900460ff1681565b60065481565b6000600160008373ffffffffffffffffffffffffffffffffffffffff1673ffffffffffffffffffffffffffffffffffffffff168152602001908152602001600020600201549050919050565b60006111623073ffffffffffffffffffffffffffffffffffffffff16316006546111d5565b905090565b60006001600a54141561117e576009549050611195565b61119260095462096e3e60065460026111f0565b90505b90565b60035481565b60008082840190508381101515156111b257fe5b8091505092915050565b60008282111515156111ca57fe5b818303905092915050565b60008082848115156111e357fe5b0490508091505092915050565b60008060008060008093506001925060019150600090505b858110156112495780880a82848b0281151561122057fe5b0481151561122a57fe5b0484019350808703830292506001810182029150806001019050611208565b839450505050509493505050505600a165627a7a7230582038db8a725f5ad05f180a43e84fcba8be5484e527cc789040c2738b26701497a40029",
  "source": "pragma solidity 0.4.18;\nimport './SafeMath.sol';\n\ncontract Servesa {\n  using SafeMath for uint256;\n\n  uint public version = 0;\n\n  struct Funder {\n    bool exists;\n    uint tokenCount;\n    uint totalPurchasePrice;\n  }\n\n  mapping(address => Funder) public funders;\n\n  bool public live = true; // For sunsetting contract\n  uint public sunsetWithdrawDate;\n  uint public sunsetWithdrawalPeriod;\n  uint public contractStartTime; // For accounting purposes\n\n  uint public totalCurrentTokens = 0; // Keeps track of total tokens\n  uint public totalCurrentFunders = 0; // Keeps track of total funders\n\n  address owner;\n  bool public ownerCanBurn = false;\n  bool public ownerCanSpend = false;\n  uint public tokenBasePrice = 100000000000000;\n  uint public tokenPriceExponent = 1;\n  uint public tokenPriceExponentDivisor = 10000;\n\n  event NewContract(uint testOne, string testString);\n  event Buy(address indexed funder, uint tokenCount);\n  event Sell(address indexed funder, uint tokenCount);\n  event Burn(address indexed funder, uint tokenCount);\n  event Drain(uint amount);\n  event Sunset(bool hasSunset);\n\n  function Servesa (\n    address ownerAddress,\n    bool ownerCanBurnInit,\n    bool ownerCanSpendInit,\n    uint tokenBasePriceInit,\n    uint tokenPriceExponentInit,\n    uint sunsetWithdrawPeriodInit) public {\n\n    owner = ownerAddress;\n    ownerCanBurn = ownerCanBurnInit;\n    ownerCanSpend = ownerCanSpendInit;\n    tokenBasePrice = tokenBasePriceInit;\n    tokenPriceExponent = tokenPriceExponentInit;\n\n    sunsetWithdrawalPeriod = sunsetWithdrawPeriodInit;\n    contractStartTime = now;\n\n    NewContract(12900, 'test message ground control');\n  }\n\n  // Modifiers\n\n  // Lifecycle\n  modifier onlyWhenLive() {\n    require(live);\n    _;\n  }\n  modifier onlyWhenSunset() {\n    require(!live);\n    _;\n  }\n\n  // Auth\n  modifier onlyByOwner() {\n    require(msg.sender == owner);\n    _;\n  }\n  modifier onlyByFunder() {\n    require(isFunder(msg.sender));\n    _;\n  }\n\n  // Contract options\n  modifier canBurn() {\n    require(ownerCanBurn);\n    _;\n  }\n  modifier canSpend() {\n    require(ownerCanSpend);\n    _;\n  }\n\n  /*\n  * External accounts can pay directly to contract to fund it.\n  */\n  function () payable public {\n    buy();\n  }\n\n  /*\n  * Buy: exchange ETH for tokens\n  */\n  function buy() public payable onlyWhenLive {\n\n    // msg.value must be greater than buy price\n    uint price = calculateNextBuyPrice();\n    require(msg.value >= price);\n\n    // Update funders array\n    if(!isFunder(msg.sender)) {\n      totalCurrentFunders = totalCurrentFunders.add(1); // Increase total funder count\n\n      funders[msg.sender] = Funder({\n        exists: true,\n        tokenCount: 1,\n        totalPurchasePrice: msg.value\n      });\n    }\n    else {\n      funders[msg.sender].tokenCount = funders[msg.sender].tokenCount.add(1);\n      funders[msg.sender].totalPurchasePrice = funders[msg.sender].totalPurchasePrice.add(price);\n    }\n\n    // increment token count\n    totalCurrentTokens = totalCurrentTokens.add(1);\n\n    // refund overage\n    msg.sender.transfer(msg.value.sub(price));\n\n    // event\n    Buy(msg.sender, funders[msg.sender].tokenCount);\n  }\n\n  /*\n  * Sell: exchange tokens for ETH\n  */\n  function sell() public onlyWhenLive onlyByFunder {\n\n    uint amount = calculateNextSellPrice();\n\n    // decrease seller's token count\n    funders[msg.sender].tokenCount = funders[msg.sender].tokenCount.sub(1);\n\n    // decrement token count\n    totalCurrentTokens = totalCurrentTokens.sub(1);\n\n    // remove founder if count == 0\n    if(funders[msg.sender].tokenCount == 0){\n        delete funders[msg.sender];\n        totalCurrentFunders = totalCurrentFunders.sub(1);\n    }\n\n    // Interaction\n    msg.sender.transfer(amount);\n\n    // event\n    Sell(msg.sender, funders[msg.sender].tokenCount);\n  }\n\n  /*\n  * Burn: delete tokens without affecting escrow balance\n  */\n  function burn(address addr) public onlyWhenLive onlyByOwner canBurn {\n\n    // addr must be funder\n    require(isFunder(addr));\n\n    // decrease targets's token count\n    funders[addr].tokenCount = funders[addr].tokenCount.sub(1);\n\n    // remove target if count == 0\n    if(funders[addr].tokenCount == 0){\n        delete funders[addr];\n        totalCurrentFunders = totalCurrentFunders.sub(1);\n    }\n\n    // decrement token count\n    totalCurrentTokens = totalCurrentTokens.sub(1);\n\n    // event\n    Burn(addr, 1);\n  }\n\n  /*\n  * Spend: remove balance\n  */\n  function spend(uint amount) public onlyWhenLive onlyByOwner canSpend {\n\n    // send amount from contract to owner\n    msg.sender.transfer(amount);\n\n    // event\n    Drain(amount);\n  }\n\n\n\n  // Pure functions\n  function fracExp(uint k, uint q, uint n, uint p) internal pure returns (uint) {\n    uint s = 0;\n    uint N = 1;\n    uint B = 1;\n    for (uint i = 0; i < p; ++i){\n      s += k * N / B / (q**i);\n      N  = N * (n-i);\n      B  = B * (i+1);\n    }\n    return s;\n  }\n\n  /*\n  * use pricing function to determine next share's 'buy' price\n  */\n  function calculateNextBuyPrice() public view returns (uint){\n\n    if(tokenPriceExponent == 1){\n        return tokenBasePrice;\n    } else {\n        return fracExp(tokenBasePrice, 618046, totalCurrentTokens, 2);\n    }\n  }\n\n  /*\n  * use pricing function to determine the current share 'sell' price\n  */\n  function calculateNextSellPrice() public view returns (uint){\n\n    // escrow balance / token supply\n    return SafeMath.div(this.balance, totalCurrentTokens);\n  }\n\n  // Getter functions\n  function getOwner() public view returns (address) {\n    return owner;\n  }\n\n  function getCurrentTotalFunders() public constant returns (uint) {\n    return totalCurrentFunders;\n  }\n\n  function getContractBalance() public constant returns (uint256 balance) {\n    balance = this.balance;\n  }\n\n  function isFunder(address addr) public constant returns (bool) {\n    return funders[addr].exists;\n  }\n\n  function isFunderTokens(address addr) public constant returns (uint256) {\n    return funders[addr].tokenCount;\n  }\n\n  function isFunderPurchase(address addr) public constant returns (uint256) {\n    return funders[addr].totalPurchasePrice;\n  }\n\n}\n",
  "sourcePath": "/Users/mattlovan/Projects/notLinkedIn/contracts/Servesa.sol",
  "compiler": {
    "name": "solc",
    "version": "0.4.18+commit.9cf6e910.Emscripten.clang"
  },
  "schemaVersion": "1.0.1",
  "updatedAt": "2017-11-29T00:25:06.031Z"
}