{
  "contractName": "StakeTreeWithTokenizationFactory",
  "abi": [
    {
      "constant": false,
      "inputs": [
        {
          "name": "beneficiaryAddress",
          "type": "address"
        },
        {
          "name": "withdrawalPeriodInit",
          "type": "uint256"
        },
        {
          "name": "withdrawalStart",
          "type": "uint256"
        },
        {
          "name": "sunsetWithdrawPeriodInit",
          "type": "uint256"
        },
        {
          "name": "minimumFundingAmountInit",
          "type": "uint256"
        }
      ],
      "name": "newContract",
      "outputs": [
        {
          "name": "newAddress",
          "type": "address"
        }
      ],
      "payable": false,
      "type": "function",
      "stateMutability": "nonpayable"
    },
    {
      "constant": true,
      "inputs": [],
      "name": "getContractAddress",
      "outputs": [
        {
          "name": "",
          "type": "address[]"
        }
      ],
      "payable": false,
      "type": "function",
      "stateMutability": "view"
    },
    {
      "constant": true,
      "inputs": [],
      "name": "contractCount",
      "outputs": [
        {
          "name": "",
          "type": "uint256"
        }
      ],
      "payable": false,
      "type": "function",
      "stateMutability": "view"
    },
    {
      "constant": true,
      "inputs": [
        {
          "name": "",
          "type": "address"
        },
        {
          "name": "",
          "type": "uint256"
        }
      ],
      "name": "contracts",
      "outputs": [
        {
          "name": "",
          "type": "address"
        }
      ],
      "payable": false,
      "type": "function",
      "stateMutability": "view"
    }
  ],
  "bytecode": "0x6060604052341561000f57600080fd5b6153538061001e6000396000f300606060405260043610610062576000357c0100000000000000000000000000000000000000000000000000000000900463ffffffff1680632d8d17c61461006757806332a2c5d0146101045780638736381a1461016e578063ed23f8c314610197575b600080fd5b341561007257600080fd5b6100c2600480803573ffffffffffffffffffffffffffffffffffffffff16906020019091908035906020019091908035906020019091908035906020019091908035906020019091905050610219565b604051808273ffffffffffffffffffffffffffffffffffffffff1673ffffffffffffffffffffffffffffffffffffffff16815260200191505060405180910390f35b341561010f57600080fd5b610117610350565b6040518080602001828103825283818151815260200191508051906020019060200280838360005b8381101561015a57808201518184015260208101905061013f565b505050509050019250505060405180910390f35b341561017957600080fd5b610181610421565b6040518082815260200191505060405180910390f35b34156101a257600080fd5b6101d7600480803573ffffffffffffffffffffffffffffffffffffffff16906020019091908035906020019091905050610427565b604051808273ffffffffffffffffffffffffffffffffffffffff1673ffffffffffffffffffffffffffffffffffffffff16815260200191505060405180910390f35b6000808686868686610229610475565b808673ffffffffffffffffffffffffffffffffffffffff1673ffffffffffffffffffffffffffffffffffffffff16815260200185815260200184815260200183815260200182815260200195505050505050604051809103906000f080151561029157600080fd5b9050600160003373ffffffffffffffffffffffffffffffffffffffff1673ffffffffffffffffffffffffffffffffffffffff16815260200190815260200160002080548060010182816102e49190610485565b9160005260206000209001600083909190916101000a81548173ffffffffffffffffffffffffffffffffffffffff021916908373ffffffffffffffffffffffffffffffffffffffff16021790555050600160008082825401925050819055508091505095945050505050565b6103586104b1565b600160003373ffffffffffffffffffffffffffffffffffffffff1673ffffffffffffffffffffffffffffffffffffffff16815260200190815260200160002080548060200260200160405190810160405280929190818152602001828054801561041757602002820191906000526020600020905b8160009054906101000a900473ffffffffffffffffffffffffffffffffffffffff1673ffffffffffffffffffffffffffffffffffffffff16815260200190600101908083116103cd575b5050505050905090565b60005481565b60016020528160005260406000208181548110151561044257fe5b90600052602060002090016000915091509054906101000a900473ffffffffffffffffffffffffffffffffffffffff1681565b604051614e3d806104eb83390190565b8154818355818115116104ac578183600052602060002091820191016104ab91906104c5565b5b505050565b602060405190810160405280600081525090565b6104e791905b808211156104e35760008160009055506001016104cb565b5090565b905600606060405260026000556001600260006101000a81548160ff021916908315150217905550600060035560006004556000600760146101000a81548160ff0219169083151502179055506000600760156101000a81548160ff021916908315150217905550341561006f57600080fd5b60405160a080614e3d8339810160405280805190602001909190805190602001909190805190602001909190805190602001909190805190602001909190505084600860006101000a81548173ffffffffffffffffffffffffffffffffffffffff021916908373ffffffffffffffffffffffffffffffffffffffff16021790555083600a819055508160098190555082600c81905550600a54600c5401600d8190555080600b8190555042600e819055505050505050614d09806101346000396000f30060606040526004361061020f576000357c0100000000000000000000000000000000000000000000000000000000900463ffffffff168063026164ad14610219578063031b36771461022e5780630930f6db1461029b5780630c3d5157146102e85780630e1a0399146103115780631dd300ce146103485780631ea488701461037157806320d786b5146103c257806334caa999146103eb57806337ea1f631461040e57806338af3eed1461043757806339b8dc401461048c5780633ccfd60b146104b557806348c54b9d146104ca57806354fd4d50146104df57806355a373d614610508578063565a2e2c1461055d5780635896521b146105b2578063590e1ae3146105db5780636b59f495146105f05780636f9fb98a1461061d5780637422930114610646578063783c8db01461067357806383c28ddc1461069c578063930c0bba146106e9578063946ad94d14610736578063957aa58c1461075b578063962ffeae14610788578063b60d4288146107b1578063b7e9f193146107bb578063b8b3d85b146107e4578063baa61df014610831578063bca7093d1461086a578063cb6e3fa914610893578063cce7db58146108e4578063cfd32aa01461091d578063d3d5549314610932578063dc30f91214610972578063e22a3af8146109c0578063e77772fe146109ed578063e7cf017114610a42578063e8f3cd5914610a67578063fa2e9db814610ab4575b610217610add565b005b341561022457600080fd5b61022c610c4d565b005b341561023957600080fd5b610265600480803573ffffffffffffffffffffffffffffffffffffffff16906020019091905050610d38565b60405180861515151581526020018581526020018481526020018381526020018281526020019550505050505060405180910390f35b34156102a657600080fd5b6102d2600480803573ffffffffffffffffffffffffffffffffffffffff16906020019091905050610d7b565b6040518082815260200191505060405180910390f35b34156102f357600080fd5b6102fb610e9e565b6040518082815260200191505060405180910390f35b341561031c57600080fd5b6103326004808035906020019091905050610ea4565b6040518082815260200191505060405180910390f35b341561035357600080fd5b61035b610ed4565b6040518082815260200191505060405180910390f35b341561037c57600080fd5b6103a8600480803573ffffffffffffffffffffffffffffffffffffffff16906020019091905050610eda565b604051808215151515815260200191505060405180910390f35b34156103cd57600080fd5b6103d5610f33565b6040518082815260200191505060405180910390f35b34156103f657600080fd5b61040c6004808035906020019091905050610f39565b005b341561041957600080fd5b610421610fae565b6040518082815260200191505060405180910390f35b341561044257600080fd5b61044a610fb8565b604051808273ffffffffffffffffffffffffffffffffffffffff1673ffffffffffffffffffffffffffffffffffffffff16815260200191505060405180910390f35b341561049757600080fd5b61049f610fde565b6040518082815260200191505060405180910390f35b34156104c057600080fd5b6104c8610fe4565b005b34156104d557600080fd5b6104dd61115c565b005b34156104ea57600080fd5b6104f2611360565b6040518082815260200191505060405180910390f35b341561051357600080fd5b61051b611366565b604051808273ffffffffffffffffffffffffffffffffffffffff1673ffffffffffffffffffffffffffffffffffffffff16815260200191505060405180910390f35b341561056857600080fd5b61057061138c565b604051808273ffffffffffffffffffffffffffffffffffffffff1673ffffffffffffffffffffffffffffffffffffffff16815260200191505060405180910390f35b34156105bd57600080fd5b6105c56113b6565b6040518082815260200191505060405180910390f35b34156105e657600080fd5b6105ee6113c0565b005b34156105fb57600080fd5b6106036114c9565b604051808215151515815260200191505060405180910390f35b341561062857600080fd5b6106306114dc565b6040518082815260200191505060405180910390f35b341561065157600080fd5b6106596114fb565b604051808215151515815260200191505060405180910390f35b341561067e57600080fd5b610686611512565b6040518082815260200191505060405180910390f35b34156106a757600080fd5b6106d3600480803573ffffffffffffffffffffffffffffffffffffffff16906020019091905050611518565b6040518082815260200191505060405180910390f35b34156106f457600080fd5b610720600480803573ffffffffffffffffffffffffffffffffffffffff169060200190919050506115d9565b6040518082815260200191505060405180910390f35b341561074157600080fd5b61075960048080351515906020019091905050611625565b005b341561076657600080fd5b61076e61173f565b604051808215151515815260200191505060405180910390f35b341561079357600080fd5b61079b611752565b6040518082815260200191505060405180910390f35b6107b9610add565b005b34156107c657600080fd5b6107ce611758565b6040518082815260200191505060405180910390f35b34156107ef57600080fd5b61081b600480803573ffffffffffffffffffffffffffffffffffffffff1690602001909190505061175e565b6040518082815260200191505060405180910390f35b341561083c57600080fd5b610868600480803573ffffffffffffffffffffffffffffffffffffffff16906020019091905050611770565b005b341561087557600080fd5b61087d6118b2565b6040518082815260200191505060405180910390f35b341561089e57600080fd5b6108ca600480803573ffffffffffffffffffffffffffffffffffffffff169060200190919050506118b8565b604051808215151515815260200191505060405180910390f35b34156108ef57600080fd5b61091b600480803573ffffffffffffffffffffffffffffffffffffffff169060200190919050506118ce565b005b341561092857600080fd5b6109306119b1565b005b341561093d57600080fd5b61095c6004808035906020019091908035906020019091905050611a59565b6040518082815260200191505060405180910390f35b341561097d57600080fd5b6109be60048080359060200190820180359060200191909192908035906020019082018035906020019190919290803560ff16906020019091905050611aa9565b005b34156109cb57600080fd5b6109d3611d26565b604051808215151515815260200191505060405180910390f35b34156109f857600080fd5b610a00611d39565b604051808273ffffffffffffffffffffffffffffffffffffffff1673ffffffffffffffffffffffffffffffffffffffff16815260200191505060405180910390f35b3415610a4d57600080fd5b610a6560048080351515906020019091905050611d5f565b005b3415610a7257600080fd5b610a9e600480803573ffffffffffffffffffffffffffffffffffffffff16906020019091905050611deb565b6040518082815260200191505060405180910390f35b3415610abf57600080fd5b610ac7611e37565b6040518082815260200191505060405180910390f35b600260009054906101000a900460ff161515610af857600080fd5b600b543410151515610b0957600080fd5b610b1233610eda565b1515610bf257610b2e6001600354611e3d90919063ffffffff16565b60038190555060a0604051908101604052806001151581526020013481526020016004548152602001600081526020016000815250600160003373ffffffffffffffffffffffffffffffffffffffff1673ffffffffffffffffffffffffffffffffffffffff16815260200190815260200160002060008201518160000160006101000a81548160ff02191690831515021790555060208201518160010155604082015181600201556060820151816003015560808201518160040155905050610bfd565b610bfc3334611e5b565b5b3373ffffffffffffffffffffffffffffffffffffffff167fd4f43975feb89f48dd30cabbb32011045be187d1e11c8ea9faa43efc35282519346040518082815260200191505060405180910390a2565b600860009054906101000a900473ffffffffffffffffffffffffffffffffffffffff1673ffffffffffffffffffffffffffffffffffffffff163373ffffffffffffffffffffffffffffffffffffffff16141515610ca957600080fd5b600260009054906101000a900460ff161515610cc457600080fd5b610cd960095442611e3d90919063ffffffff16565b6005819055506000600260006101000a81548160ff0219169083151502179055507fcd62b3824d2183ae05f654408a9f8a5768f44218ec6eea3722d91b9405d2757e6001604051808215151515815260200191505060405180910390a1565b60016020528060005260406000206000915090508060000160009054906101000a900460ff16908060010154908060020154908060030154908060040154905085565b600080600080610d8a856118b8565b15610e5057600160008673ffffffffffffffffffffffffffffffffffffffff1673ffffffffffffffffffffffffffffffffffffffff168152602001908152602001600020600101549250610ddd85611518565b9150610df28284611f5890919063ffffffff16565b9050610e4981600160008873ffffffffffffffffffffffffffffffffffffffff1673ffffffffffffffffffffffffffffffffffffffff16815260200190815260200160002060030154611e3d90919063ffffffff16565b9350610e96565b600160008673ffffffffffffffffffffffffffffffffffffffff1673ffffffffffffffffffffffffffffffffffffffff1681526020019081526020016000206003015493505b505050919050565b600e5481565b6000610ecd6064610ebf600a85611f7190919063ffffffff16565b611fa490919063ffffffff16565b9050919050565b600c5481565b6000600160008373ffffffffffffffffffffffffffffffffffffffff1673ffffffffffffffffffffffffffffffffffffffff16815260200190815260200160002060000160009054906101000a900460ff169050919050565b60045481565b600860009054906101000a900473ffffffffffffffffffffffffffffffffffffffff1673ffffffffffffffffffffffffffffffffffffffff163373ffffffffffffffffffffffffffffffffffffffff16141515610f9557600080fd5b600081111515610fa457600080fd5b80600b8190555050565b6000600454905090565b600860009054906101000a900473ffffffffffffffffffffffffffffffffffffffff1681565b60095481565b6000600860009054906101000a900473ffffffffffffffffffffffffffffffffffffffff1673ffffffffffffffffffffffffffffffffffffffff163373ffffffffffffffffffffffffffffffffffffffff1614151561104257600080fd5b600d54421015151561105357600080fd5b600260009054906101000a900460ff16151561106e57600080fd5b61108e3073ffffffffffffffffffffffffffffffffffffffff1631610ea4565b90506110a66001600454611e3d90919063ffffffff16565b60048190555042600c81905550600a54600d5401600d81905550600860009054906101000a900473ffffffffffffffffffffffffffffffffffffffff1673ffffffffffffffffffffffffffffffffffffffff166108fc829081150290604051600060405180830381858888f19350505050151561112257600080fd5b7f4e70a604b23a8edee2b1d0a656e9b9c00b73ad8bb1afc2c59381ee9f69197de7816040518082815260200191505060405180910390a150565b600080600061116a33610eda565b151561117557600080fd5b61117d6114fb565b151561118857600080fd5b600760159054906101000a900460ff1615156111a357600080fd5b6111ac33610d7b565b92506111b733611deb565b91506111cc8284611f5890919063ffffffff16565b90506000811115156111dd57600080fd5b82600160003373ffffffffffffffffffffffffffffffffffffffff1673ffffffffffffffffffffffffffffffffffffffff16815260200190815260200160002060040181905550600660009054906101000a900473ffffffffffffffffffffffffffffffffffffffff1673ffffffffffffffffffffffffffffffffffffffff1663827f32c033836000604051602001526040518363ffffffff167c0100000000000000000000000000000000000000000000000000000000028152600401808373ffffffffffffffffffffffffffffffffffffffff1673ffffffffffffffffffffffffffffffffffffffff16815260200182815260200192505050602060405180830381600087803b15156112f157600080fd5b6102c65a03f1151561130257600080fd5b50505060405180519050503373ffffffffffffffffffffffffffffffffffffffff167f896e034966eaaf1adc54acc0f257056febbd300c9e47182cf761982cf1f5e430826040518082815260200191505060405180910390a2505050565b60005481565b600660009054906101000a900473ffffffffffffffffffffffffffffffffffffffff1681565b6000600860009054906101000a900473ffffffffffffffffffffffffffffffffffffffff16905090565b6000600354905090565b6000806113cc33610eda565b15156113d757600080fd5b3073ffffffffffffffffffffffffffffffffffffffff163191506113fa33611518565b905060008111151561140b57600080fd5b6114136119b1565b3373ffffffffffffffffffffffffffffffffffffffff166108fc829081150290604051600060405180830381858888f19350505050151561145357600080fd5b3373ffffffffffffffffffffffffffffffffffffffff167fbb28353e4598c3b9199101a66e0989549b659a59a54d2c27fbb183f1932c8e6d826040518082815260200191505060405180910390a28082033073ffffffffffffffffffffffffffffffffffffffff16311415156114c557fe5b5050565b600760149054906101000a900460ff1681565b60003073ffffffffffffffffffffffffffffffffffffffff1631905090565b6000600760149054906101000a900460ff16905090565b600b5481565b6000806000611526846118b8565b1561158c57600160008573ffffffffffffffffffffffffffffffffffffffff1673ffffffffffffffffffffffffffffffffffffffff16815260200190815260200160002060010154915061157984611fbf565b90506115858282611a59565b92506115d2565b600160008573ffffffffffffffffffffffffffffffffffffffff1673ffffffffffffffffffffffffffffffffffffffff1681526020019081526020016000206001015492505b5050919050565b6000600160008373ffffffffffffffffffffffffffffffffffffffff1673ffffffffffffffffffffffffffffffffffffffff168152602001908152602001600020600201549050919050565b600860009054906101000a900473ffffffffffffffffffffffffffffffffffffffff1673ffffffffffffffffffffffffffffffffffffffff163373ffffffffffffffffffffffffffffffffffffffff1614151561168157600080fd5b6116896114fb565b151561169457600080fd5b600660009054906101000a900473ffffffffffffffffffffffffffffffffffffffff1673ffffffffffffffffffffffffffffffffffffffff1663f41e60c5826040518263ffffffff167c01000000000000000000000000000000000000000000000000000000000281526004018082151515158152602001915050600060405180830381600087803b151561172857600080fd5b6102c65a03f1151561173957600080fd5b50505050565b600260009054906101000a900460ff1681565b60035481565b600d5481565b600061176982611518565b9050919050565b600860009054906101000a900473ffffffffffffffffffffffffffffffffffffffff1673ffffffffffffffffffffffffffffffffffffffff163373ffffffffffffffffffffffffffffffffffffffff161415156117cc57600080fd5b6117d46114fb565b15156117df57600080fd5b600660009054906101000a900473ffffffffffffffffffffffffffffffffffffffff1673ffffffffffffffffffffffffffffffffffffffff1663df8de3e7826040518263ffffffff167c0100000000000000000000000000000000000000000000000000000000028152600401808273ffffffffffffffffffffffffffffffffffffffff1673ffffffffffffffffffffffffffffffffffffffff168152602001915050600060405180830381600087803b151561189b57600080fd5b6102c65a03f115156118ac57600080fd5b50505050565b600a5481565b60006004546118c6836115d9565b109050919050565b600260009054906101000a900460ff161515156118ea57600080fd5b600860009054906101000a900473ffffffffffffffffffffffffffffffffffffffff1673ffffffffffffffffffffffffffffffffffffffff163373ffffffffffffffffffffffffffffffffffffffff1614151561194657600080fd5b600554421015151561195757600080fd5b8073ffffffffffffffffffffffffffffffffffffffff166108fc3073ffffffffffffffffffffffffffffffffffffffff16319081150290604051600060405180830381858888f1935050505015156119ae57600080fd5b50565b6119ba33610eda565b15156119c557600080fd5b600160003373ffffffffffffffffffffffffffffffffffffffff1673ffffffffffffffffffffffffffffffffffffffff168152602001908152602001600020600080820160006101000a81549060ff021916905560018201600090556002820160009055600382016000905560048201600090555050611a516001600354611f5890919063ffffffff16565b600381905550565b600080600090505b82811015611a9f57611a90600a611a82600987611f7190919063ffffffff16565b611fa490919063ffffffff16565b93508080600101915050611a61565b8391505092915050565b600860009054906101000a900473ffffffffffffffffffffffffffffffffffffffff1673ffffffffffffffffffffffffffffffffffffffff163373ffffffffffffffffffffffffffffffffffffffff16141515611b0557600080fd5b611b0d6114fb565b151515611b1957600080fd5b611b21611fe5565b604051809103906000f0801515611b3757600080fd5b600760006101000a81548173ffffffffffffffffffffffffffffffffffffffff021916908373ffffffffffffffffffffffffffffffffffffffff160217905550600760009054906101000a900473ffffffffffffffffffffffffffffffffffffffff1673ffffffffffffffffffffffffffffffffffffffff16635b7b72c1600080888886898960016000604051602001526040518963ffffffff167c0100000000000000000000000000000000000000000000000000000000028152600401808973ffffffffffffffffffffffffffffffffffffffff168152602001888152602001806020018660ff1660ff168152602001806020018415151515815260200183810383528989828181526020019250808284378201915050838103825286868281815260200192508082843782019150509a5050505050505050505050602060405180830381600087803b1515611c8e57600080fd5b6102c65a03f11515611c9f57600080fd5b50505060405180519050600660006101000a81548173ffffffffffffffffffffffffffffffffffffffff021916908373ffffffffffffffffffffffffffffffffffffffff1602179055506001600760146101000a81548160ff0219169083151502179055506001600760156101000a81548160ff0219169083151502179055505050505050565b600760159054906101000a900460ff1681565b600760009054906101000a900473ffffffffffffffffffffffffffffffffffffffff1681565b611d676114fb565b1515611d7257600080fd5b600860009054906101000a900473ffffffffffffffffffffffffffffffffffffffff1673ffffffffffffffffffffffffffffffffffffffff163373ffffffffffffffffffffffffffffffffffffffff16141515611dce57600080fd5b80600760156101000a81548160ff02191690831515021790555050565b6000600160008373ffffffffffffffffffffffffffffffffffffffff1673ffffffffffffffffffffffffffffffffffffffff168152602001908152602001600020600401549050919050565b60055481565b6000808284019050838110151515611e5157fe5b8091505092915050565b611e6482610d7b565b600160008473ffffffffffffffffffffffffffffffffffffffff1673ffffffffffffffffffffffffffffffffffffffff16815260200190815260200160002060030181905550611ec581611eb784611518565b611e3d90919063ffffffff16565b600160008473ffffffffffffffffffffffffffffffffffffffff1673ffffffffffffffffffffffffffffffffffffffff16815260200190815260200160002060010181905550600454600160008473ffffffffffffffffffffffffffffffffffffffff1673ffffffffffffffffffffffffffffffffffffffff168152602001908152602001600020600201819055505050565b6000828211151515611f6657fe5b818303905092915050565b60008082840290506000841480611f925750828482811515611f8f57fe5b04145b1515611f9a57fe5b8091505092915050565b6000808284811515611fb257fe5b0490508091505092915050565b6000611fde611fcd836115d9565b600454611f5890919063ffffffff16565b9050919050565b604051612ce880611ff68339019056006060604052341561000f57600080fd5b612cca8061001e6000396000f300606060405260043610610041576000357c0100000000000000000000000000000000000000000000000000000000900463ffffffff1680635b7b72c114610046575b600080fd5b341561005157600080fd5b610123600480803573ffffffffffffffffffffffffffffffffffffffff1690602001909190803590602001909190803590602001908201803590602001908080601f0160208091040260200160405190810160405280939291908181526020018383808284378201915050505050509190803560ff1690602001909190803590602001908201803590602001908080601f016020809104026020016040519081016040528093929190818152602001838380828437820191505050505050919080351515906020019091905050610165565b604051808273ffffffffffffffffffffffffffffffffffffffff1673ffffffffffffffffffffffffffffffffffffffff16815260200191505060405180910390f35b600080308888888888886101776103ab565b808873ffffffffffffffffffffffffffffffffffffffff1673ffffffffffffffffffffffffffffffffffffffff1681526020018773ffffffffffffffffffffffffffffffffffffffff1673ffffffffffffffffffffffffffffffffffffffff168152602001868152602001806020018560ff1660ff1681526020018060200184151515158152602001838103835287818151815260200191508051906020019080838360005b8381101561023857808201518184015260208101905061021d565b50505050905090810190601f1680156102655780820380516001836020036101000a031916815260200191505b50838103825285818151815260200191508051906020019080838360005b8381101561029e578082015181840152602081019050610283565b50505050905090810190601f1680156102cb5780820380516001836020036101000a031916815260200191505b509950505050505050505050604051809103906000f08015156102ed57600080fd5b90508073ffffffffffffffffffffffffffffffffffffffff16633cebb823336040518263ffffffff167c0100000000000000000000000000000000000000000000000000000000028152600401808273ffffffffffffffffffffffffffffffffffffffff1673ffffffffffffffffffffffffffffffffffffffff168152602001915050600060405180830381600087803b151561038957600080fd5b6102c65a03f1151561039a57600080fd5b505050809150509695505050505050565b6040516128e3806103bc83390190560060606040526040805190810160405280600781526020017f4d4d545f302e32000000000000000000000000000000000000000000000000008152506004908051906020019062000051929190620001f9565b5034156200005e57600080fd5b604051620028e3380380620028e383398101604052808051906020019091908051906020019091908051906020019091908051820191906020018051906020019091908051820191906020018051906020019091905050336000806101000a81548173ffffffffffffffffffffffffffffffffffffffff021916908373ffffffffffffffffffffffffffffffffffffffff16021790555086600b60016101000a81548173ffffffffffffffffffffffffffffffffffffffff021916908373ffffffffffffffffffffffffffffffffffffffff16021790555083600190805190602001906200014e929190620001f9565b5082600260006101000a81548160ff021916908360ff160217905550816003908051906020019062000182929190620001f9565b5085600560006101000a81548173ffffffffffffffffffffffffffffffffffffffff021916908373ffffffffffffffffffffffffffffffffffffffff1602179055508460068190555080600b60006101000a81548160ff0219169083151502179055504360078190555050505050505050620002a8565b828054600181600116156101000203166002900490600052602060002090601f016020900481019282601f106200023c57805160ff19168380011785556200026d565b828001600101855582156200026d579182015b828111156200026c5782518255916020019190600101906200024f565b5b5090506200027c919062000280565b5090565b620002a591905b80821115620002a157600081600090555060010162000287565b5090565b90565b61262b80620002b86000396000f300606060405260043610610149576000357c0100000000000000000000000000000000000000000000000000000000900463ffffffff16806306fdde031461014b578063095ea7b3146101d9578063176345141461023357806318160ddd1461025c57806323b872dd14610285578063313ce567146102fe5780633cebb8231461032d5780634ee2cd7e1461036657806354fd4d50146103bc5780636638c0871461044a57806370a082311461054a57806380a5400114610597578063827f32c0146105ec57806395d89b4114610646578063981b24d0146106d4578063a9059cbb1461070b578063bef97c8714610765578063c5bcc4f114610792578063cae9ca51146107bb578063d3ce77fe14610858578063dd62ed3e146108b2578063df8de3e71461091e578063e77772fe14610957578063f41e60c5146109ac578063f77c4791146109d1575b005b341561015657600080fd5b61015e610a26565b6040518080602001828103825283818151815260200191508051906020019080838360005b8381101561019e578082015181840152602081019050610183565b50505050905090810190601f1680156101cb5780820380516001836020036101000a031916815260200191505b509250505060405180910390f35b34156101e457600080fd5b610219600480803573ffffffffffffffffffffffffffffffffffffffff16906020019091908035906020019091905050610ac4565b604051808215151515815260200191505060405180910390f35b341561023e57600080fd5b610246610c67565b6040518082815260200191505060405180910390f35b341561026757600080fd5b61026f610c6d565b6040518082815260200191505060405180910390f35b341561029057600080fd5b6102e4600480803573ffffffffffffffffffffffffffffffffffffffff1690602001909190803573ffffffffffffffffffffffffffffffffffffffff16906020019091908035906020019091905050610c7d565b604051808215151515815260200191505060405180910390f35b341561030957600080fd5b610311610e1d565b604051808260ff1660ff16815260200191505060405180910390f35b341561033857600080fd5b610364600480803573ffffffffffffffffffffffffffffffffffffffff16906020019091905050610e30565b005b341561037157600080fd5b6103a6600480803573ffffffffffffffffffffffffffffffffffffffff16906020019091908035906020019091905050610ece565b6040518082815260200191505060405180910390f35b34156103c757600080fd5b6103cf611143565b6040518080602001828103825283818151815260200191508051906020019080838360005b8381101561040f5780820151818401526020810190506103f4565b50505050905090810190601f16801561043c5780820380516001836020036101000a031916815260200191505b509250505060405180910390f35b341561045557600080fd5b610508600480803590602001908201803590602001908080601f0160208091040260200160405190810160405280939291908181526020018383808284378201915050505050509190803560ff1690602001909190803590602001908201803590602001908080601f0160208091040260200160405190810160405280939291908181526020018383808284378201915050505050509190803590602001909190803515159060200190919050506111e1565b604051808273ffffffffffffffffffffffffffffffffffffffff1673ffffffffffffffffffffffffffffffffffffffff16815260200191505060405180910390f35b341561055557600080fd5b610581600480803573ffffffffffffffffffffffffffffffffffffffff169060200190919050506114d8565b6040518082815260200191505060405180910390f35b34156105a257600080fd5b6105aa6114eb565b604051808273ffffffffffffffffffffffffffffffffffffffff1673ffffffffffffffffffffffffffffffffffffffff16815260200191505060405180910390f35b34156105f757600080fd5b61062c600480803573ffffffffffffffffffffffffffffffffffffffff16906020019091908035906020019091905050611511565b604051808215151515815260200191505060405180910390f35b341561065157600080fd5b61065961165b565b6040518080602001828103825283818151815260200191508051906020019080838360005b8381101561069957808201518184015260208101905061067e565b50505050905090810190601f1680156106c65780820380516001836020036101000a031916815260200191505b509250505060405180910390f35b34156106df57600080fd5b6106f560048080359060200190919050506116f9565b6040518082815260200191505060405180910390f35b341561071657600080fd5b61074b600480803573ffffffffffffffffffffffffffffffffffffffff16906020019091908035906020019091905050611882565b604051808215151515815260200191505060405180910390f35b341561077057600080fd5b6107786118b2565b604051808215151515815260200191505060405180910390f35b341561079d57600080fd5b6107a56118c5565b6040518082815260200191505060405180910390f35b34156107c657600080fd5b61083e600480803573ffffffffffffffffffffffffffffffffffffffff1690602001909190803590602001909190803590602001908201803590602001908080601f016020809104026020016040519081016040528093929190818152602001838380828437820191505050505050919050506118cb565b604051808215151515815260200191505060405180910390f35b341561086357600080fd5b610898600480803573ffffffffffffffffffffffffffffffffffffffff16906020019091908035906020019091905050611a44565b604051808215151515815260200191505060405180910390f35b34156108bd57600080fd5b610908600480803573ffffffffffffffffffffffffffffffffffffffff1690602001909190803573ffffffffffffffffffffffffffffffffffffffff16906020019091905050611b8a565b6040518082815260200191505060405180910390f35b341561092957600080fd5b610955600480803573ffffffffffffffffffffffffffffffffffffffff16906020019091905050611c11565b005b341561096257600080fd5b61096a611f42565b604051808273ffffffffffffffffffffffffffffffffffffffff1673ffffffffffffffffffffffffffffffffffffffff16815260200191505060405180910390f35b34156109b757600080fd5b6109cf60048080351515906020019091905050611f68565b005b34156109dc57600080fd5b6109e4611fe0565b604051808273ffffffffffffffffffffffffffffffffffffffff1673ffffffffffffffffffffffffffffffffffffffff16815260200191505060405180910390f35b60018054600181600116156101000203166002900480601f016020809104026020016040519081016040528092919081815260200182805460018160011615610100020316600290048015610abc5780601f10610a9157610100808354040283529160200191610abc565b820191906000526020600020905b815481529060010190602001808311610a9f57829003601f168201915b505050505081565b6000600b60009054906101000a900460ff161515610ae157600080fd5b6000821480610b6c57506000600960003373ffffffffffffffffffffffffffffffffffffffff1673ffffffffffffffffffffffffffffffffffffffff16815260200190815260200160002060008573ffffffffffffffffffffffffffffffffffffffff1673ffffffffffffffffffffffffffffffffffffffff16815260200190815260200160002054145b1515610b7757600080fd5b81600960003373ffffffffffffffffffffffffffffffffffffffff1673ffffffffffffffffffffffffffffffffffffffff16815260200190815260200160002060008573ffffffffffffffffffffffffffffffffffffffff1673ffffffffffffffffffffffffffffffffffffffff168152602001908152602001600020819055508273ffffffffffffffffffffffffffffffffffffffff163373ffffffffffffffffffffffffffffffffffffffff167f8c5be1e5ebec7d5bd14f71427d1e84f3dd0314c0f7b2291e5b200ac8c7c3b925846040518082815260200191505060405180910390a36001905092915050565b60075481565b6000610c78436116f9565b905090565b60008060009054906101000a900473ffffffffffffffffffffffffffffffffffffffff1673ffffffffffffffffffffffffffffffffffffffff163373ffffffffffffffffffffffffffffffffffffffff16141515610e0857600b60009054906101000a900460ff161515610cf057600080fd5b81600960008673ffffffffffffffffffffffffffffffffffffffff1673ffffffffffffffffffffffffffffffffffffffff16815260200190815260200160002060003373ffffffffffffffffffffffffffffffffffffffff1673ffffffffffffffffffffffffffffffffffffffff168152602001908152602001600020541015610d7d5760009050610e16565b81600960008673ffffffffffffffffffffffffffffffffffffffff1673ffffffffffffffffffffffffffffffffffffffff16815260200190815260200160002060003373ffffffffffffffffffffffffffffffffffffffff1673ffffffffffffffffffffffffffffffffffffffff168152602001908152602001600020600082825403925050819055505b610e13848484612005565b90505b9392505050565b600260009054906101000a900460ff1681565b6000809054906101000a900473ffffffffffffffffffffffffffffffffffffffff1673ffffffffffffffffffffffffffffffffffffffff163373ffffffffffffffffffffffffffffffffffffffff16141515610e8b57600080fd5b806000806101000a81548173ffffffffffffffffffffffffffffffffffffffff021916908373ffffffffffffffffffffffffffffffffffffffff16021790555050565b600080600860008573ffffffffffffffffffffffffffffffffffffffff1673ffffffffffffffffffffffffffffffffffffffff168152602001908152602001600020805490501480610fa8575081600860008573ffffffffffffffffffffffffffffffffffffffff1673ffffffffffffffffffffffffffffffffffffffff1681526020019081526020016000206000815481101515610f6957fe5b906000526020600020900160000160009054906101000a90046fffffffffffffffffffffffffffffffff166fffffffffffffffffffffffffffffffff16115b156110f2576000600560009054906101000a900473ffffffffffffffffffffffffffffffffffffffff1673ffffffffffffffffffffffffffffffffffffffff161415156110e957600560009054906101000a900473ffffffffffffffffffffffffffffffffffffffff1673ffffffffffffffffffffffffffffffffffffffff16634ee2cd7e8461103a856006546121ca565b6000604051602001526040518363ffffffff167c0100000000000000000000000000000000000000000000000000000000028152600401808373ffffffffffffffffffffffffffffffffffffffff1673ffffffffffffffffffffffffffffffffffffffff16815260200182815260200192505050602060405180830381600087803b15156110c757600080fd5b6102c65a03f115156110d857600080fd5b50505060405180519050905061113d565b6000905061113d565b61113a600860008573ffffffffffffffffffffffffffffffffffffffff1673ffffffffffffffffffffffffffffffffffffffff168152602001908152602001600020836121e3565b90505b92915050565b60048054600181600116156101000203166002900480601f0160208091040260200160405190810160405280929190818152602001828054600181600116156101000203166002900480156111d95780601f106111ae576101008083540402835291602001916111d9565b820191906000526020600020905b8154815290600101906020018083116111bc57829003601f168201915b505050505081565b60008060008414156111f1574393505b600b60019054906101000a900473ffffffffffffffffffffffffffffffffffffffff1673ffffffffffffffffffffffffffffffffffffffff16635b7b72c130868a8a8a896000604051602001526040518763ffffffff167c0100000000000000000000000000000000000000000000000000000000028152600401808773ffffffffffffffffffffffffffffffffffffffff1673ffffffffffffffffffffffffffffffffffffffff168152602001868152602001806020018560ff1660ff1681526020018060200184151515158152602001838103835287818151815260200191508051906020019080838360005b838110156112fb5780820151818401526020810190506112e0565b50505050905090810190601f1680156113285780820380516001836020036101000a031916815260200191505b50838103825285818151815260200191508051906020019080838360005b83811015611361578082015181840152602081019050611346565b50505050905090810190601f16801561138e5780820380516001836020036101000a031916815260200191505b5098505050505050505050602060405180830381600087803b15156113b257600080fd5b6102c65a03f115156113c357600080fd5b5050506040518051905090508073ffffffffffffffffffffffffffffffffffffffff16633cebb823336040518263ffffffff167c0100000000000000000000000000000000000000000000000000000000028152600401808273ffffffffffffffffffffffffffffffffffffffff1673ffffffffffffffffffffffffffffffffffffffff168152602001915050600060405180830381600087803b151561146957600080fd5b6102c65a03f1151561147a57600080fd5b5050508073ffffffffffffffffffffffffffffffffffffffff167f086c875b377f900b07ce03575813022f05dd10ed7640b5282cf6d3c3fc352ade856040518082815260200191505060405180910390a28091505095945050505050565b60006114e48243610ece565b9050919050565b600560009054906101000a900473ffffffffffffffffffffffffffffffffffffffff1681565b60008060008060009054906101000a900473ffffffffffffffffffffffffffffffffffffffff1673ffffffffffffffffffffffffffffffffffffffff163373ffffffffffffffffffffffffffffffffffffffff1614151561157157600080fd5b611579610c6d565b9150818483011015151561158c57600080fd5b611595856114d8565b905080848201101515156115a857600080fd5b6115b5600a8584016123f7565b6115ff600860008773ffffffffffffffffffffffffffffffffffffffff1673ffffffffffffffffffffffffffffffffffffffff1681526020019081526020016000208583016123f7565b8473ffffffffffffffffffffffffffffffffffffffff1660007fddf252ad1be2c89b69c2b068fc378daa952ba7f163c4a11628f55a4df523b3ef866040518082815260200191505060405180910390a360019250505092915050565b60038054600181600116156101000203166002900480601f0160208091040260200160405190810160405280929190818152602001828054600181600116156101000203166002900480156116f15780601f106116c6576101008083540402835291602001916116f1565b820191906000526020600020905b8154815290600101906020018083116116d457829003601f168201915b505050505081565b600080600a805490501480611759575081600a600081548110151561171a57fe5b906000526020600020900160000160009054906101000a90046fffffffffffffffffffffffffffffffff166fffffffffffffffffffffffffffffffff16115b1561186f576000600560009054906101000a900473ffffffffffffffffffffffffffffffffffffffff1673ffffffffffffffffffffffffffffffffffffffff1614151561186657600560009054906101000a900473ffffffffffffffffffffffffffffffffffffffff1673ffffffffffffffffffffffffffffffffffffffff1663981b24d06117ea846006546121ca565b6000604051602001526040518263ffffffff167c010000000000000000000000000000000000000000000000000000000002815260040180828152602001915050602060405180830381600087803b151561184457600080fd5b6102c65a03f1151561185557600080fd5b50505060405180519050905061187d565b6000905061187d565b61187a600a836121e3565b90505b919050565b6000600b60009054906101000a900460ff16151561189f57600080fd5b6118aa338484612005565b905092915050565b600b60009054906101000a900460ff1681565b60065481565b60006118d78484610ac4565b15156118e257600080fd5b8373ffffffffffffffffffffffffffffffffffffffff16638f4ffcb1338530866040518563ffffffff167c0100000000000000000000000000000000000000000000000000000000028152600401808573ffffffffffffffffffffffffffffffffffffffff1673ffffffffffffffffffffffffffffffffffffffff1681526020018481526020018373ffffffffffffffffffffffffffffffffffffffff1673ffffffffffffffffffffffffffffffffffffffff16815260200180602001828103825283818151815260200191508051906020019080838360005b838110156119d75780820151818401526020810190506119bc565b50505050905090810190601f168015611a045780820380516001836020036101000a031916815260200191505b5095505050505050600060405180830381600087803b1515611a2557600080fd5b6102c65a03f11515611a3657600080fd5b505050600190509392505050565b60008060008060009054906101000a900473ffffffffffffffffffffffffffffffffffffffff1673ffffffffffffffffffffffffffffffffffffffff163373ffffffffffffffffffffffffffffffffffffffff16141515611aa457600080fd5b611aac610c6d565b9150838210151515611abd57600080fd5b611ac6856114d8565b9050838110151515611ad757600080fd5b611ae4600a8584036123f7565b611b2e600860008773ffffffffffffffffffffffffffffffffffffffff1673ffffffffffffffffffffffffffffffffffffffff1681526020019081526020016000208583036123f7565b60008573ffffffffffffffffffffffffffffffffffffffff167fddf252ad1be2c89b69c2b068fc378daa952ba7f163c4a11628f55a4df523b3ef866040518082815260200191505060405180910390a360019250505092915050565b6000600960008473ffffffffffffffffffffffffffffffffffffffff1673ffffffffffffffffffffffffffffffffffffffff16815260200190815260200160002060008373ffffffffffffffffffffffffffffffffffffffff1673ffffffffffffffffffffffffffffffffffffffff16815260200190815260200160002054905092915050565b6000806000809054906101000a900473ffffffffffffffffffffffffffffffffffffffff1673ffffffffffffffffffffffffffffffffffffffff163373ffffffffffffffffffffffffffffffffffffffff16141515611c6f57600080fd5b60008373ffffffffffffffffffffffffffffffffffffffff161415611d0b576000809054906101000a900473ffffffffffffffffffffffffffffffffffffffff1673ffffffffffffffffffffffffffffffffffffffff166108fc3073ffffffffffffffffffffffffffffffffffffffff16319081150290604051600060405180830381858888f193505050501515611d0657600080fd5b611f3d565b8291508173ffffffffffffffffffffffffffffffffffffffff166370a08231306000604051602001526040518263ffffffff167c0100000000000000000000000000000000000000000000000000000000028152600401808273ffffffffffffffffffffffffffffffffffffffff1673ffffffffffffffffffffffffffffffffffffffff168152602001915050602060405180830381600087803b1515611db157600080fd5b6102c65a03f11515611dc257600080fd5b5050506040518051905090508173ffffffffffffffffffffffffffffffffffffffff1663a9059cbb6000809054906101000a900473ffffffffffffffffffffffffffffffffffffffff16836000604051602001526040518363ffffffff167c0100000000000000000000000000000000000000000000000000000000028152600401808373ffffffffffffffffffffffffffffffffffffffff1673ffffffffffffffffffffffffffffffffffffffff16815260200182815260200192505050602060405180830381600087803b1515611e9a57600080fd5b6102c65a03f11515611eab57600080fd5b50505060405180519050506000809054906101000a900473ffffffffffffffffffffffffffffffffffffffff1673ffffffffffffffffffffffffffffffffffffffff168373ffffffffffffffffffffffffffffffffffffffff167ff931edb47c50b4b4104c187b5814a9aef5f709e17e2ecf9617e860cacade929c836040518082815260200191505060405180910390a35b505050565b600b60019054906101000a900473ffffffffffffffffffffffffffffffffffffffff1681565b6000809054906101000a900473ffffffffffffffffffffffffffffffffffffffff1673ffffffffffffffffffffffffffffffffffffffff163373ffffffffffffffffffffffffffffffffffffffff16141515611fc357600080fd5b80600b60006101000a81548160ff02191690831515021790555050565b6000809054906101000a900473ffffffffffffffffffffffffffffffffffffffff1681565b60008060008084141561201b57600192506121c1565b4360065410151561202b57600080fd5b60008573ffffffffffffffffffffffffffffffffffffffff161415801561207e57503073ffffffffffffffffffffffffffffffffffffffff168573ffffffffffffffffffffffffffffffffffffffff1614155b151561208957600080fd5b6120938643610ece565b9150838210156120a657600092506121c1565b6120f0600860008873ffffffffffffffffffffffffffffffffffffffff1673ffffffffffffffffffffffffffffffffffffffff1681526020019081526020016000208584036123f7565b6120fa8543610ece565b9050808482011015151561210d57600080fd5b612157600860008773ffffffffffffffffffffffffffffffffffffffff1673ffffffffffffffffffffffffffffffffffffffff1681526020019081526020016000208583016123f7565b8473ffffffffffffffffffffffffffffffffffffffff168673ffffffffffffffffffffffffffffffffffffffff167fddf252ad1be2c89b69c2b068fc378daa952ba7f163c4a11628f55a4df523b3ef866040518082815260200191505060405180910390a3600192505b50509392505050565b60008183106121d957816121db565b825b905092915050565b6000806000806000868054905014156121ff57600093506123ee565b85600187805490500381548110151561221457fe5b906000526020600020900160000160009054906101000a90046fffffffffffffffffffffffffffffffff166fffffffffffffffffffffffffffffffff16851015156122b25785600187805490500381548110151561226e57fe5b906000526020600020900160000160109054906101000a90046fffffffffffffffffffffffffffffffff166fffffffffffffffffffffffffffffffff1693506123ee565b8560008154811015156122c157fe5b906000526020600020900160000160009054906101000a90046fffffffffffffffffffffffffffffffff166fffffffffffffffffffffffffffffffff1685101561230e57600093506123ee565b60009250600186805490500391505b828211156123a057600260018484010181151561233657fe5b04905084868281548110151561234857fe5b906000526020600020900160000160009054906101000a90046fffffffffffffffffffffffffffffffff166fffffffffffffffffffffffffffffffff161115156123945780925061239b565b6001810391505b61231d565b85838154811015156123ae57fe5b906000526020600020900160000160109054906101000a90046fffffffffffffffffffffffffffffffff166fffffffffffffffffffffffffffffffff1693505b50505092915050565b60008060008480549050148061245d57504384600186805490500381548110151561241e57fe5b906000526020600020900160000160009054906101000a90046fffffffffffffffffffffffffffffffff166fffffffffffffffffffffffffffffffff16105b1561250a5783848054809190600101612476919061256e565b81548110151561248257fe5b90600052602060002090019150438260000160006101000a8154816fffffffffffffffffffffffffffffffff02191690836fffffffffffffffffffffffffffffffff160217905550828260000160106101000a8154816fffffffffffffffffffffffffffffffff02191690836fffffffffffffffffffffffffffffffff160217905550612568565b83600185805490500381548110151561251f57fe5b90600052602060002090019050828160000160106101000a8154816fffffffffffffffffffffffffffffffff02191690836fffffffffffffffffffffffffffffffff1602179055505b50505050565b81548183558181151161259557818360005260206000209182019101612594919061259a565b5b505050565b6125fc91905b808211156125f857600080820160006101000a8154906fffffffffffffffffffffffffffffffff02191690556000820160106101000a8154906fffffffffffffffffffffffffffffffff0219169055506001016125a0565b5090565b905600a165627a7a72305820f8463c6e9d1f02ddb9002666d6871f474ca98788d92e756baac2c04f1ca0b4c50029a165627a7a72305820ff3683db64d976816fd2641bddd78e6b88d135a3566798ffb6ff3a5240d92a1c0029a165627a7a72305820cc81650761c798676caef47553a9635d338c6cda6f59caf182dadcbf5de15b890029a165627a7a72305820317b2a818b99e5df410d90d630feaa20a9d5ea12fe7ff41773db448879df06a60029",
  "source": "pragma solidity 0.4.18;\nimport './StakeTreeWithTokenization.sol';\n\ncontract StakeTreeWithTokenizationFactory {\n  uint public contractCount;\n  mapping(address => address[]) public contracts;\n\n  function newContract(\n    address beneficiaryAddress,\n    uint withdrawalPeriodInit,\n    uint withdrawalStart,\n    uint sunsetWithdrawPeriodInit,\n    uint minimumFundingAmountInit ) public returns (address newAddress) {\n\n    StakeTreeWithTokenization staketree = new StakeTreeWithTokenization(\n      beneficiaryAddress,\n      withdrawalPeriodInit,\n      withdrawalStart,\n      sunsetWithdrawPeriodInit,\n      minimumFundingAmountInit\n    );\n\n    contracts[msg.sender].push(staketree);\n    contractCount += 1;\n\n    return staketree;\n  }\n\n  function getContractAddress() public constant returns (address[]) {\n    return contracts[msg.sender];\n  }\n}\n",
  "sourcePath": "/Users/mattlovan/Projects/notLinkedIn/contracts/StakeTreeWithTokenizationFactory.sol",
  "compiler": {
    "name": "solc",
    "version": "0.4.18+commit.9cf6e910.Emscripten.clang"
  },
  "schemaVersion": "1.0.1",
  "updatedAt": "2017-11-26T18:58:22.444Z"
}