{
  "contractName": "StakeTreeMVPFactory",
  "abi": [
    {
      "constant": false,
      "inputs": [
        {
          "name": "beneficiaryAddress",
          "type": "address"
        },
        {
          "name": "withdrawalPeriodInit",
          "type": "uint256"
        },
        {
          "name": "withdrawalStart",
          "type": "uint256"
        },
        {
          "name": "sunsetWithdrawPeriodInit",
          "type": "uint256"
        },
        {
          "name": "minimumFundingAmountInit",
          "type": "uint256"
        }
      ],
      "name": "newContract",
      "outputs": [
        {
          "name": "newAddress",
          "type": "address"
        }
      ],
      "payable": false,
      "type": "function",
      "stateMutability": "nonpayable"
    },
    {
      "constant": true,
      "inputs": [],
      "name": "getContractAddress",
      "outputs": [
        {
          "name": "",
          "type": "address[]"
        }
      ],
      "payable": false,
      "type": "function",
      "stateMutability": "view"
    },
    {
      "constant": true,
      "inputs": [],
      "name": "contractCount",
      "outputs": [
        {
          "name": "",
          "type": "uint256"
        }
      ],
      "payable": false,
      "type": "function",
      "stateMutability": "view"
    },
    {
      "constant": true,
      "inputs": [
        {
          "name": "",
          "type": "address"
        },
        {
          "name": "",
          "type": "uint256"
        }
      ],
      "name": "contracts",
      "outputs": [
        {
          "name": "",
          "type": "address"
        }
      ],
      "payable": false,
      "type": "function",
      "stateMutability": "view"
    }
  ],
  "bytecode": "0x6060604052341561000f57600080fd5b61170c8061001e6000396000f300606060405260043610610062576000357c0100000000000000000000000000000000000000000000000000000000900463ffffffff1680632d8d17c61461006757806332a2c5d0146101045780638736381a1461016e578063ed23f8c314610197575b600080fd5b341561007257600080fd5b6100c2600480803573ffffffffffffffffffffffffffffffffffffffff16906020019091908035906020019091908035906020019091908035906020019091908035906020019091905050610219565b604051808273ffffffffffffffffffffffffffffffffffffffff1673ffffffffffffffffffffffffffffffffffffffff16815260200191505060405180910390f35b341561010f57600080fd5b610117610350565b6040518080602001828103825283818151815260200191508051906020019060200280838360005b8381101561015a57808201518184015260208101905061013f565b505050509050019250505060405180910390f35b341561017957600080fd5b610181610421565b6040518082815260200191505060405180910390f35b34156101a257600080fd5b6101d7600480803573ffffffffffffffffffffffffffffffffffffffff16906020019091908035906020019091905050610427565b604051808273ffffffffffffffffffffffffffffffffffffffff1673ffffffffffffffffffffffffffffffffffffffff16815260200191505060405180910390f35b6000808686868686610229610475565b808673ffffffffffffffffffffffffffffffffffffffff1673ffffffffffffffffffffffffffffffffffffffff16815260200185815260200184815260200183815260200182815260200195505050505050604051809103906000f080151561029157600080fd5b9050600160003373ffffffffffffffffffffffffffffffffffffffff1673ffffffffffffffffffffffffffffffffffffffff16815260200190815260200160002080548060010182816102e49190610485565b9160005260206000209001600083909190916101000a81548173ffffffffffffffffffffffffffffffffffffffff021916908373ffffffffffffffffffffffffffffffffffffffff16021790555050600160008082825401925050819055508091505095945050505050565b6103586104b1565b600160003373ffffffffffffffffffffffffffffffffffffffff1673ffffffffffffffffffffffffffffffffffffffff16815260200190815260200160002080548060200260200160405190810160405280929190818152602001828054801561041757602002820191906000526020600020905b8160009054906101000a900473ffffffffffffffffffffffffffffffffffffffff1673ffffffffffffffffffffffffffffffffffffffff16815260200190600101908083116103cd575b5050505050905090565b60005481565b60016020528160005260406000208181548110151561044257fe5b90600052602060002090016000915091509054906101000a900473ffffffffffffffffffffffffffffffffffffffff1681565b6040516111f6806104eb83390190565b8154818355818115116104ac578183600052602060002091820191016104ab91906104c5565b5b505050565b602060405190810160405280600081525090565b6104e791905b808211156104e35760008160009055506001016104cb565b5090565b905600606060405260016000556001600260006101000a81548160ff02191690831515021790555060006003556000600455341561003957600080fd5b60405160a0806111f68339810160405280805190602001909190805190602001909190805190602001909190805190602001909190805190602001909190505084600660006101000a81548173ffffffffffffffffffffffffffffffffffffffff021916908373ffffffffffffffffffffffffffffffffffffffff160217905550836008819055508160078190555082600a81905550600854600a5401600b819055508060098190555042600c8190555050505050506110f8806100fe6000396000f300606060405260043610610180576000357c0100000000000000000000000000000000000000000000000000000000900463ffffffff168063026164ad1461018a578063031b36771461019f5780630c3d5157146101fe5780630e1a0399146102275780631dd300ce1461025e5780631ea488701461028757806320d786b5146102d857806334caa9991461030157806337ea1f631461032457806338af3eed1461034d57806339b8dc40146103a25780633ccfd60b146103cb57806354fd4d50146103e0578063565a2e2c146104095780635896521b1461045e578063590e1ae3146104875780636f9fb98a1461049c578063783c8db0146104c557806383c28ddc146104ee578063930c0bba1461053b578063957aa58c14610588578063962ffeae146105b5578063b60d4288146105de578063b7e9f193146105e8578063b8b3d85b14610611578063bca7093d1461065e578063cce7db5814610687578063cfd32aa0146106c0578063d3d55493146106d5578063fa2e9db814610715575b61018861073e565b005b341561019557600080fd5b61019d6108de565b005b34156101aa57600080fd5b6101d6600480803573ffffffffffffffffffffffffffffffffffffffff1690602001909190505061098d565b6040518084151515158152602001838152602001828152602001935050505060405180910390f35b341561020957600080fd5b6102116109c4565b6040518082815260200191505060405180910390f35b341561023257600080fd5b61024860048080359060200190919050506109ca565b6040518082815260200191505060405180910390f35b341561026957600080fd5b6102716109fa565b6040518082815260200191505060405180910390f35b341561029257600080fd5b6102be600480803573ffffffffffffffffffffffffffffffffffffffff16906020019091905050610a00565b604051808215151515815260200191505060405180910390f35b34156102e357600080fd5b6102eb610a59565b6040518082815260200191505060405180910390f35b341561030c57600080fd5b6103226004808035906020019091905050610a5f565b005b341561032f57600080fd5b610337610ad4565b6040518082815260200191505060405180910390f35b341561035857600080fd5b610360610ade565b604051808273ffffffffffffffffffffffffffffffffffffffff1673ffffffffffffffffffffffffffffffffffffffff16815260200191505060405180910390f35b34156103ad57600080fd5b6103b5610b04565b6040518082815260200191505060405180910390f35b34156103d657600080fd5b6103de610b0a565b005b34156103eb57600080fd5b6103f3610c4b565b6040518082815260200191505060405180910390f35b341561041457600080fd5b61041c610c51565b604051808273ffffffffffffffffffffffffffffffffffffffff1673ffffffffffffffffffffffffffffffffffffffff16815260200191505060405180910390f35b341561046957600080fd5b610471610c7b565b6040518082815260200191505060405180910390f35b341561049257600080fd5b61049a610c85565b005b34156104a757600080fd5b6104af610d40565b6040518082815260200191505060405180910390f35b34156104d057600080fd5b6104d8610d5f565b6040518082815260200191505060405180910390f35b34156104f957600080fd5b610525600480803573ffffffffffffffffffffffffffffffffffffffff16906020019091905050610d65565b6040518082815260200191505060405180910390f35b341561054657600080fd5b610572600480803573ffffffffffffffffffffffffffffffffffffffff16906020019091905050610dcd565b6040518082815260200191505060405180910390f35b341561059357600080fd5b61059b610e19565b604051808215151515815260200191505060405180910390f35b34156105c057600080fd5b6105c8610e2c565b6040518082815260200191505060405180910390f35b6105e661073e565b005b34156105f357600080fd5b6105fb610e32565b6040518082815260200191505060405180910390f35b341561061c57600080fd5b610648600480803573ffffffffffffffffffffffffffffffffffffffff16906020019091905050610e38565b6040518082815260200191505060405180910390f35b341561066957600080fd5b610671610e4a565b6040518082815260200191505060405180910390f35b341561069257600080fd5b6106be600480803573ffffffffffffffffffffffffffffffffffffffff16906020019091905050610e50565b005b34156106cb57600080fd5b6106d3610f33565b005b34156106e057600080fd5b6106ff6004808035906020019091908035906020019091905050610fcb565b6040518082815260200191505060405180910390f35b341561072057600080fd5b61072861101b565b6040518082815260200191505060405180910390f35b600260009054906101000a900460ff16151561075957600080fd5b600954341015151561076a57600080fd5b61077333610a00565b15156108315761078f600160035461102190919063ffffffff16565b600381905550606060405190810160405280600115158152602001348152602001600454815250600160003373ffffffffffffffffffffffffffffffffffffffff1673ffffffffffffffffffffffffffffffffffffffff16815260200190815260200160002060008201518160000160006101000a81548160ff02191690831515021790555060208201518160010155604082015181600201559050506108dc565b61084c3461083e33610d65565b61102190919063ffffffff16565b600160003373ffffffffffffffffffffffffffffffffffffffff1673ffffffffffffffffffffffffffffffffffffffff16815260200190815260200160002060010181905550600454600160003373ffffffffffffffffffffffffffffffffffffffff1673ffffffffffffffffffffffffffffffffffffffff168152602001908152602001600020600201819055505b565b600660009054906101000a900473ffffffffffffffffffffffffffffffffffffffff1673ffffffffffffffffffffffffffffffffffffffff163373ffffffffffffffffffffffffffffffffffffffff1614151561093a57600080fd5b600260009054906101000a900460ff16151561095557600080fd5b61096a6007544261102190919063ffffffff16565b6005819055506000600260006101000a81548160ff021916908315150217905550565b60016020528060005260406000206000915090508060000160009054906101000a900460ff16908060010154908060020154905083565b600c5481565b60006109f360646109e5600a8561103f90919063ffffffff16565b61107290919063ffffffff16565b9050919050565b600a5481565b6000600160008373ffffffffffffffffffffffffffffffffffffffff1673ffffffffffffffffffffffffffffffffffffffff16815260200190815260200160002060000160009054906101000a900460ff169050919050565b60045481565b600660009054906101000a900473ffffffffffffffffffffffffffffffffffffffff1673ffffffffffffffffffffffffffffffffffffffff163373ffffffffffffffffffffffffffffffffffffffff16141515610abb57600080fd5b600081111515610aca57600080fd5b8060098190555050565b6000600454905090565b600660009054906101000a900473ffffffffffffffffffffffffffffffffffffffff1681565b60075481565b6000600660009054906101000a900473ffffffffffffffffffffffffffffffffffffffff1673ffffffffffffffffffffffffffffffffffffffff163373ffffffffffffffffffffffffffffffffffffffff16141515610b6857600080fd5b600b544210151515610b7957600080fd5b600260009054906101000a900460ff161515610b9457600080fd5b610bb43073ffffffffffffffffffffffffffffffffffffffff16316109ca565b9050610bcc600160045461102190919063ffffffff16565b60048190555042600a81905550600854600b5401600b81905550600660009054906101000a900473ffffffffffffffffffffffffffffffffffffffff1673ffffffffffffffffffffffffffffffffffffffff166108fc829081150290604051600060405180830381858888f193505050501515610c4857600080fd5b50565b60005481565b6000600660009054906101000a900473ffffffffffffffffffffffffffffffffffffffff16905090565b6000600354905090565b600080610c9133610a00565b1515610c9c57600080fd5b3073ffffffffffffffffffffffffffffffffffffffff16319150610cbf33610d65565b9050600081111515610cd057600080fd5b610cd8610f33565b3373ffffffffffffffffffffffffffffffffffffffff166108fc829081150290604051600060405180830381858888f193505050501515610d1857600080fd5b8082033073ffffffffffffffffffffffffffffffffffffffff1631141515610d3c57fe5b5050565b60003073ffffffffffffffffffffffffffffffffffffffff1631905090565b60095481565b6000806000600160008573ffffffffffffffffffffffffffffffffffffffff1673ffffffffffffffffffffffffffffffffffffffff168152602001908152602001600020600101549150610db88461108d565b9050610dc48282610fcb565b92505050919050565b6000600160008373ffffffffffffffffffffffffffffffffffffffff1673ffffffffffffffffffffffffffffffffffffffff168152602001908152602001600020600201549050919050565b600260009054906101000a900460ff1681565b60035481565b600b5481565b6000610e4382610d65565b9050919050565b60085481565b600260009054906101000a900460ff16151515610e6c57600080fd5b600660009054906101000a900473ffffffffffffffffffffffffffffffffffffffff1673ffffffffffffffffffffffffffffffffffffffff163373ffffffffffffffffffffffffffffffffffffffff16141515610ec857600080fd5b6005544210151515610ed957600080fd5b8073ffffffffffffffffffffffffffffffffffffffff166108fc3073ffffffffffffffffffffffffffffffffffffffff16319081150290604051600060405180830381858888f193505050501515610f3057600080fd5b50565b610f3c33610a00565b1515610f4757600080fd5b600160003373ffffffffffffffffffffffffffffffffffffffff1673ffffffffffffffffffffffffffffffffffffffff168152602001908152602001600020600080820160006101000a81549060ff0219169055600182016000905560028201600090555050610fc360016003546110b390919063ffffffff16565b600381905550565b600080600090505b8281101561101157611002600a610ff460098761103f90919063ffffffff16565b61107290919063ffffffff16565b93508080600101915050610fd3565b8391505092915050565b60055481565b600080828401905083811015151561103557fe5b8091505092915050565b60008082840290506000841480611060575082848281151561105d57fe5b04145b151561106857fe5b8091505092915050565b600080828481151561108057fe5b0490508091505092915050565b60006110ac61109b83610dcd565b6004546110b390919063ffffffff16565b9050919050565b60008282111515156110c157fe5b8183039050929150505600a165627a7a723058202531cc4d92cdd57a981ab782bedb47e84598236cdbe3e0c976d36a59e10476820029a165627a7a72305820eafa6cc48e200fa49c61b69d02063dee526ed06bee0dcb43c1cdf3d8653feaec0029",
  "source": "pragma solidity ^0.4.11;\nimport './StakeTreeMVP.sol';\n\ncontract StakeTreeMVPFactory {\n  uint public contractCount;\n  mapping(address => address[]) public contracts;\n\n  function newContract(\n    address beneficiaryAddress, \n    uint withdrawalPeriodInit, \n    uint withdrawalStart, \n    uint sunsetWithdrawPeriodInit,\n    uint minimumFundingAmountInit ) public returns (address newAddress) {\n\n    StakeTreeMVP mvp = new StakeTreeMVP(\n      beneficiaryAddress, \n      withdrawalPeriodInit, \n      withdrawalStart, \n      sunsetWithdrawPeriodInit,\n      minimumFundingAmountInit\n    );\n\n    contracts[msg.sender].push(mvp);\n    contractCount += 1;\n\n    return mvp;\n  }\n\n  function getContractAddress() public constant returns (address[]) {\n    return contracts[msg.sender];\n  }\n}",
  "sourcePath": "/Users/mattlovan/Projects/notLinkedIn/contracts/StakeTreeMVPFactory.sol",
  "compiler": {
    "name": "solc",
    "version": "0.4.18+commit.9cf6e910.Emscripten.clang"
  },
  "schemaVersion": "1.0.1",
  "updatedAt": "2017-11-26T18:57:06.142Z"
}